:100000000C94E7000C940F010C940F010C940F0159
:100010000C940F010C940F010C940F010C940F0120
:100020000C940F010C940F010C948D0A0C941C0974
:100030000C940F010C940F010C940F010C940F0100
:100040000C940F010C940F010C940F010C940F01F0
:100050000C940F010C940F010C940F010C94230BC2
:100060000C940F010C940F010C940F010C940F01D0
:100070000C940F010C940F010C940F010C940F01C0
:100080000C940F010C940F010C940F010C940F01B0
:100090000C940F010C940F010C940F010C940F01A0
:1000A0000C940F010C940F010C940F01480C4B0C95
:1000B0003A0C3E0C440C6C0C6C0C6C0C4F0C530C3E
:1000C000570C5D0C610C6C0C670C080B00020202F3
:1000D00001000904000001020200000524001001D3
:1000E0000524010101042402060524060001070578
:1000F000810310004009040100020A000000070506
:1001000002024000000705830240000012010002C5
:10011000EF02014041233680000101020301120178
:10012000000200000040412336800001010203016B
:1001300041726475696E6F204C4C43004172647566
:10014000696E6F204C656F6E6172646F0004030905
:10015000040000000200090F0000030401000C006D
:10016000000000000000000000000000000000008F
:1001700004080201104080401020408040800802A6
:100180000401804020100201108010204040200413
:10019000040404040304050202020204030202022E
:1001A0000206060606060604040202020404000013
:1001B0000000250028002B002E0031000000000068
:1001C000240027002A002D003000AA0594061124DF
:1001D0001FBECFEFDAE0DEBFCDBF11E0A0E0B1E09F
:1001E000EEE4FDE102C005900D92A838B107D9F701
:1001F00022E0A8E8B1E001C01D92A231B207E1F708
:1002000010E0C7EED0E004C02197FE010E94720DFD
:10021000C53ED107C9F70E94AA060C94A50E0C94FE
:1002200000000F931F93CF93DF9308E011E061E08C
:10023000F80180810E94A90CC0916401D0916501F0
:1002400044E650E060E070E0CE010E94460560E0C8
:10025000F80180810E94A90C44E650E060E070E063
:10026000CE01DF91CF911F910F910C944605CF9352
:10027000DF9340E855E260E070E08EE991E00E9493
:100280008E0661E080910A010E946D0C61E0809110
:1002900008010E946D0C61E0809106010E946D0CC6
:1002A000C0916401D091650126E930E040E050E062
:1002B00061E171E0CE010E94670526E930E040E08F
:1002C00050E061E971E0CE010E946705CE01DF9147
:1002D000CF910C94A7040F931F93CF93DF930AE061
:1002E00011E061E0F80180810E94A90CC0916401D5
:1002F000D091650148EE53E060E070E0CE010E94CD
:10030000460560E0F80180810E94A90C48EE53E0A8
:1003100060E070E0CE01DF91CF911F910F910C94BE
:1003200046058EE991E00E94D805892BD9F08EE927
:1003300091E00E94E805803341F460E0809106017D
:100340000E94A90C6FE171E009C0813359F461E0AA
:10035000809106010E94A90C6FE271E08EE991E0A4
:100360000E94D8060C94A6050895DC011696ED911E
:10037000FC911797309709F009940895DC011696BF
:10038000ED91FC911797309709F00994089508951D
:1003900008952F923F924F925F926F927F928F9229
:1003A0009F92AF92BF92CF92DF92EF92FF920F9304
:1003B0001F93CF93DF93EB012DB63EB6288239828F
:1003C000EC01288039804FB6F8943EBE2DBE4FBE5A
:1003D000DF91CF911F910F91FF90EF90DF90CF9021
:1003E000BF90AF909F908F907F906F905F904F9055
:1003F0003F902F900895FC018581843018F085810D
:10040000886085830895FC01858183FF03C0858111
:10041000877F85830895FC01858183FB882780F988
:100420000895CF93DF93FC012581223050F0EC0139
:100430000190F081E02D0190F081E02D099584E09C
:100440008D83DF91CF910895DC0115962C9115973E
:1004500022FF28C015962C91287259F490938D0193
:1004600080938C0168E871E008960E94C90181E0E0
:1004700008950FB6F89426B515B23091FE010FBE5F
:1004800010FE03C02F3F09F0315011240024330F18
:10049000330F220F001C220F001C3029FC0137876C
:1004A00026870CC0DC0115962C91159721FF06C0FC
:1004B000ED91FC910480F581E02D099580E008958F
:1004C000CF93DF93EC018D8183FD1AC08D8184FF72
:1004D00017C080918E018F5F80938E0185E08D83A0
:1004E000E881F9810280F381E02DCE01099584E055
:1004F0008D8380918E01815080938E0181E001C0B7
:1005000080E0DF91CF910895FC0180919C01909152
:100510009D0193838283F0939D01E0939C0164830A
:1005200081E08583089522E431E0FC01318320835A
:100530001782168261E00C948402CF92DF92EF92D0
:10054000FF92CF93DF93EC016A017B010E946D0B58
:100550006C0D7D1D8E1D9F1D688379838A839B830F
:10056000DF91CF91FF90EF90DF90CF90089540E022
:1005700050E0BA010C949D02009731F0FC01E6179F
:10058000F70710F44193FBCF0895FC018091990186
:100590008F5F8093990113861286118610861782C9
:1005A0001682A281B38180919A0190919B019383DD
:1005B0008283F0939B01E0939A01A817B90789F011
:1005C000B0939D01A0939C0112962D913C9113979D
:1005D0002817390711F0D901F7CF1396FC93EE9342
:1005E000129782E084830895FC01CB0173876287B0
:1005F00041505109640F751F7187608745E50C9460
:10060000BC020F931F93CF93DF93EC0189010E94EB
:10061000F4021F830E83012B11F082E08D83DF91A2
:10062000CF911F910F9108950F931F93CF93DF9355
:1006300000D000D000D0CDB7DEB78C012D833E8333
:100640004B835C8369837A830E94930284E591E003
:10065000F80191838083C80144960E94B702C801C3
:100660000E94C5022D813E814B815C8169817A8126
:10067000C80126960FB6F894DEBF0FBECDBFDF913E
:10068000CF911F910F910C940103CF93DF93EC0155
:10069000EA81FB81BC01685F7F4F309721F0858143
:1006A0008C72843039F010928D0110928C0188E8A0
:1006B00091E00AC0F0938B01E0938A01F0938D01E1
:1006C000E0938C01CF0108960E94C9010FB6F894FF
:1006D00086B515B29091FE010FBE10FE03C08F3F8C
:1006E00009F0915011240024990F990F880F001CD4
:1006F000880F001C90299F878E87DF91CF910895E6
:1007000020918E01211116C0FC0122893389261700
:10071000370714F4738B628BFC0120893189A9019E
:1007200055954795641B750B620F731F718B608B1A
:100730000C9445030895FC01248535852115310568
:10074000F1F00FB6F89466B515B27091FE010FBEC8
:1007500010FE03C06F3F09F0715011240024770F81
:10076000770F660F001C660F001C702946855785A1
:10077000641B750B6217730744F00C94800320917F
:100780008E01211102C00C9445030895AB01672B23
:1007900009F10FB6F89426B515B23091FE010FBEDF
:1007A00010FE03C02F3F09F0315011240024330FF5
:1007B000330F220F001C220F001C3029FC0166851C
:1007C0007785F901E61BF70BBF01E417F50744F045
:1007D0000C94800320918E01211102C00C944503DA
:1007E0000895CF93DF93FC0120853185232B09F4F5
:1007F00097C0EC01858181FF60C0F89468E871E0E2
:10080000CB010E94C9018D8182FF43C0198A188AD9
:100810001B8A1A8A85E08D838D8183FD34C0E8812F
:10082000F9810684F785E02DCE0109958C859D859B
:10083000009709F10FB6F89466B515B27091FE01F4
:100840000FBE10FE03C06F3F09F071501124002449
:10085000770F770F660F001C660F001C70292E851E
:100860003F85621B730B681779070CF4D5CFCE0157
:100870000E948003D1CF80918E018111CDCFCE0116
:100880000E944503C9CF60E070E0CE010E94C6031C
:10089000C3CFEDB7FEB78091880190918901A885FB
:1008A000B9859D01215031093987288720812C93F2
:1008B0003197E817F90799F77894CE010E94110251
:1008C00080918F01909190019D878C872091930159
:1008D00030919401820F931F909394018093930120
:1008E0000FB6F89486B515B29091FE010FBE10FEBA
:1008F00003C08F3F09F0915011240024990F990FE4
:10090000880F001C880F001C90299F878E8740E06D
:1009100050E0BA01CE014496DF91CF910C949D0234
:10092000DF91CF910895FC0180E991E09087878362
:10093000928781871486138616861586108A1786F5
:10094000138212821582148281E086830895CF93E8
:10095000DF93EC0189859A859C878B8780919C0128
:1009600090919D019B838A838A819B81009761F08E
:10097000DC01ED91FC910480F581E02D0995EA817F
:10098000FB8182819381EECF10928E01DF91CF9116
:1009900008950F931F93CF93DF93EC018C819D817A
:1009A000009731F0DF91CF911F910F910C949B0331
:1009B0008E81811166C000919C0110919D01E09192
:1009C0009A01F0919B010E171F0761F0D801ED917C
:1009D000FC910680F781E02DC8010995F80102819C
:1009E0001381EDCF8A819B81892B09F039C0309723
:1009F00009F447C00FB6F89486B515B29091FE0180
:100A00000FBE10FE03C08F3F09F091501124002447
:100A1000990F990F880F001C880F001C90292685BC
:100A20003785821B930B29853A85232B29F02B854B
:100A30003C85821793072CF1FB83EA832F85388945
:100A40002817390714F4988B8F872D853E85A901C7
:100A500055954795841B950B820F931F9E878D8715
:100A60000A811B81D801ED91FC910680F781E02D70
:100A7000C8010995F801828193819B838A83892B20
:100A800079F7DF91CF911F910F910895CF92DF9267
:100A9000EF92FF92CF93DF93EC016A017B010E94FA
:100AA0006D0BC60ED71EE81EF91E0E946D0B6C154D
:100AB0007D058E059F0520F4CE010E94C904F5CF67
:100AC000DF91CF91FF90EF90DF90CF900895CF927C
:100AD000DF92EF92FF920F931F93CF93DF9300D09B
:100AE00000D0CDB7DEB77B01BA01A901CA014983A5
:100AF0005A836B837C830E94780D8C01892BB9F01B
:100B00008CE190E00E94BD066C01970149815A81F9
:100B1000B8010E941403C114D10421F4C8010E9439
:100B20000D0E05C084E0F6018483C60102C080E09A
:100B300090E00F900F900F900F90DF91CF911F9149
:100B40000F91FF90EF90DF90CF90089588E891E0AB
:100B50000C94C90488E891E00C949304CF93DF933C
:100B60001F92CDB7DEB76983DC01ED91FC91028065
:100B7000F381E02D41E050E0BE016F5F7F4F0995AA
:100B80000F90DF91CF910895CF93DF93EC018C8587
:100B90009D8597FF05C082E00E94F9079D878C879D
:100BA0008C859D85DF91CF91089583E00C94830A15
:100BB000FC018485958597FD06C082E00E94A3070D
:100BC00090E00196089582E00E94A30790E00895C6
:100BD000FC018485958597FD05C02FEF3FEF358794
:100BE0002487089582E00C94F907CF93DF93EC01FA
:100BF00080911701882331F083E00E942A0818169B
:100C0000190634F081E090E09B838A8380E090E0D5
:100C1000DF91CF910895FC0190819E5F908342E423
:100C200050E06AEC70E080E80C94C208FC0181811D
:100C30009081913A59F4813209F058C047E050E070
:100C400060E171E080E00E94C20866C0913209F064
:100C50004DC0833291F49381892F90E0982F88279B
:100C60002281822BA0E0B0E080930C0190930D01D3
:100C7000A0930E01B0930F014FC0803239F467E0AA
:100C800070E080E191E00E94E90806C0823209F03C
:100C900043C08281809317018091100190911101CE
:100CA000A0911201B0911301803B9440A105B105C0
:100CB000F9F48091170180FD1BC08091000890918C
:100CC00001089093FF0A8093FE0A87E797E79093C5
:100CD0000108809300089BE088E10FB6F894A8957E
:100CE000809360000FBE9093600016C080E008956E
:100CF0000FB6F894A8958091600088618093600099
:100D0000109260000FBEA8958091FE0A9091FF0A94
:100D1000909301088093000881E008952FEF3FEF42
:100D2000FC01358724870895EEE9F1E013821282F1
:100D300088EE93E0A0E0B0E084839583A683B78338
:100D40008AE691E0918380838FEF9FEF9587848778
:100D5000089508950E94DA0B0E94A9068EEE91E094
:100D60000E94100B0E943701C0E0D0E00E946B018E
:100D70002097E1F30E940000F9CF0C94780D6115E3
:100D8000710579F0FB0101900020E9F73197AF017F
:100D9000461B570BDC01ED91FC910280F381E02DA5
:100DA000099480E090E0089566E771E00C94BF0636
:100DB0000F931F93CF93DF93EC010E94BF068C012A
:100DC000CE010E94D406800F911FDF91CF911F9119
:100DD0000F910895615030F02091F100FC012083C3
:100DE0000196F8CF289884E68093F7010895409102
:100DF000F2015091F3012091F0013091F10142177D
:100E00005307B4F49091E8009570E1F39091E800F5
:100E100092FD19C08093F1008091F2019091F3014D
:100E200001968F739927892B19F48EEF8093E80030
:100E30008091F2019091F30101969093F3018093D8
:100E4000F20181E0089580E00895CF92DF92EF9261
:100E5000FF920F931F93CF93DF931F92CDB7DEB70F
:100E6000182F062FE42E862F880F8E5F99830E94FD
:100E7000F70683E00E94F706F12EC12E9981D92E44
:100E80008C2D8F19801798F4F601E7FE02C084912B
:100E900001C080810E94F706182F80E00E94F706AB
:100EA0008123FFEFCF1ADF0A8111EACF01C081E071
:100EB0000F90DF91CF911F910F91FF90EF90DF90F6
:100EC000CF9008958091D70081608093D70080EA09
:100ED0008093D80089B5806189BD89B5826089BD5C
:100EE00009B400FEFDCF61E070E080E090E00E9478
:100EF0009E0B8091D8008F7C80618093D800809178
:100F0000E000807F8093E0000895CF93DF931F92ED
:100F1000CDB7DEB71982CE0101960E940B060E9462
:100F20005E0DBE016F5F7F4F0E94D90C89810F90CB
:100F3000DF91CF9108952FB7FC012083F89467705B
:100F40006093E9000895CF93DF931F92CDB7DEB78A
:100F5000682FCE0101960E949B078091F200998133
:100F60009FBF0F90DF91CF910895EF92FF920F9363
:100F70001F93CF93DF931F92CDB7DEB79091F60109
:100F8000992311F057FF03C08FEF9FEF2AC08A010A
:100F90007B01682FCE0101960E949B078091F20091
:100FA00090E0A801801791070CF4AC01842FF701A1
:100FB00094E6815038F028989093F7012091F10041
:100FC0002193F7CF4115510521F08091F20088233C
:100FD00021F089818FBFCA0104C08BE68093E800AD
:100FE000F8CF0F90DF91CF911F910F91FF90EF906D
:100FF0000895CF93DF931F92CDB7DEB741E050E065
:10100000BE016F5F7F4F0E94B507019719F4898178
:1010100090E002C08FEF9FEF0F90DF91CF91089586
:10102000CF93DF931F92CDB7DEB7682FCE01019625
:101030000E949B079091E800892F807295FF04C061
:101040009091F20080E4891B99819FBF0F90DF91FE
:10105000CF9108956F927F928F929F92AF92BF929D
:10106000CF92DF92EF92FF920F931F93CF93DF9374
:101070001F92CDB7DEB7A82E6B01B42E052F80913D
:10108000F601882369F0E42EF52E8AEF982E8A2D3A
:101090008072782E9AE3892E8A2D8074682E12C071
:1010A0008FEF9FEF54C08A2D0E941008182F8111D6
:1010B0000DC09A949920A1F361E070E080E090E087
:1010C0000E949E0BE114F10471F737C090E0E8161E
:1010D000F9060CF41E2D6A2DCE0101960E949B0785
:1010E0008091E80085FF26C0812F90E0E81AF90A78
:1010F000772029F01150A8F01092F100FBCFF601F3
:10110000A7FE07C0115058F024912093F1003196AA
:10111000F9CF115020F021912093F100FACFC80EA1
:10112000D91E8091E80085FF0FC0E114F10411F48D
:1011300061100AC089818FBFC5CF5D9884E6809316
:10114000F8018B2D902F03C08092E800F3CF0F9011
:10115000DF91CF911F910F91FF90EF90DF90CF9093
:10116000BF90AF909F908F907F906F900895109256
:10117000E9001092F3011092F2019093F101809333
:10118000F0010895DF92EF92FF920F931F93CF9398
:10119000DF93D82E8A017B01E40EF51EEB01CE15FC
:1011A000DF0571F0D7FE03C0FE01849101C0888184
:1011B0000E94F70621968111F2CF8FEF9FEF01C0B9
:1011C000C801DF91CF911F910F91FF90EF90DF90B9
:1011D0000895BF92CF92DF92EF92FF920F931F93E9
:1011E000CF93DF936C018B01EB019BEFB92E20971E
:1011F000C1F07E01C134D1051CF080E4E82EF12C51
:101200008091E80082FFFCCFC8018C1B9D0B6E2DE6
:101210008C0D9D1D0E94EA06B092E800CE19DF09F0
:10122000E6CFC801DF91CF911F910F91FF90EF9012
:10123000DF90CF90BF9008951F920F920FB60F923C
:101240001124CF92DF92EF92FF920F931F932F936F
:101250003F934F935F936F937F938F939F93AF933E
:10126000BF93EF93FF93CF93DF93CDB7DEB76C9728
:10127000DEBFCDBF1092E9008091E80083FF24C15A
:1012800068E0CE0145960E94EA0682EF8093E8006E
:101290008D8987FF05C09091E80090FFFCCF03C0C7
:1012A0009EEF9093E800982F907609F0F1C09E8908
:1012B0002F89188D91110CC0803829F48091F50187
:1012C0008093F10002C01092F1001092F100F5C07D
:1012D000422F50E0512B913051F48111EEC041303A
:1012E000510509F0EAC08091F5018D7F0BC0933064
:1012F00061F48111E2C04130510509F0DEC08091F6
:10130000F50182608093F501D8C0953041F4809159
:10131000E80080FFFCCF20682093E300CEC0963029
:1013200009F08CC0EB8CFC8C123069F580E090E009
:101330000E94B7080E94850799E09E012F5F3F4FEA
:101340006901F901292F11922A95E9F799831A83E6
:1013500091E09E8390EA98879AEF99872091F20115
:101360003091F301275F3F4F3C832B838D83C7016F
:101370000E94B70849E050E0B60180E00E94C20830
:101380000E9485079AC0C7010E94B7080E945E0D9F
:10139000BE016B5E7F4F0E94020D009719F00CF0AA
:1013A0008CC08FC0113071F48B8D9C8D089719F40F
:1013B00081E08093EF018091EF0181112FC06EE1F8
:1013C00071E031C0133009F07CC08F89882349F166
:1013D000823029F440E860E18CE391E006C081307E
:1013E00039F440E86BE080E391E00E94250763C098
:1013F000833009F066C00E945E0D8E010F5F1F4FA3
:10140000B8010E94210DF80101900020E9F7319701
:10141000BF01601B710B40E0C801E7CF6CE071E0D9
:1014200002C06DE471E06115710509F44AC0FB0169
:10143000449150E080E80E94C2083FC0973009F410
:1014400040C0983021F481E08093F10036C099309B
:10145000A1F58370B1F5E9E1F1E081E021E036E347
:101460009081992361F08093E9002093EB009191A2
:101470009093EC003093ED008F5F873089F78EE713
:101480008093EA001092EA008F898093F60115C0DC
:101490008B8D9C8D0E94B708898D811105C0CE016E
:1014A00045960E94160607C00E945E0DBE016B5E47
:1014B0007F4F0E94400D882321F08EEF8093E8003B
:1014C00003C081E28093EB006C960FB6F894DEBF08
:1014D0000FBECDBFDF91CF91FF91EF91BF91AF9143
:1014E0009F918F917F916F915F914F913F912F913C
:1014F0001F910F91FF90EF90DF90CF900F900FBE54
:101500000F901F9018958093E9008091F200882336
:1015100019F08AE38093E80008951F920F920FB6A6
:101520000F9211242F933F934F935F936F937F9369
:101530008F939F93AF93BF93CF93EF93FF93C091FC
:10154000E1008091E100837F8093E1008093E100DE
:10155000C3FF0FC01092E90081E08093EB0010926E
:10156000EC0082E38093ED001092F60188E0809316
:10157000F000C2FF19C083E00E94830A8091F80145
:10158000882339F08091F80181508093F8018823F5
:1015900089F18091F701882339F08091F70181501A
:1015A0008093F701882341F1C4FF10C08091E200CD
:1015B0008E7E81608093E2008091E1008F7E809337
:1015C000E1008091F4018E7E806111C0C0FF16C0E1
:1015D0008091E2008E7E80618093E2008091E10044
:1015E0008E7E8093E1008091F4018E7E81608093F5
:1015F000F40104C05D9ACDCF289AD6CFFF91EF9128
:10160000CF91BF91AF919F918F917F916F915F919A
:101610004F913F912F910F900FBE0F901F901895F3
:101620001092F6011092F5011092F4010E946207E7
:10163000E1EEF0E080818E7E80838DE08093E20099
:10164000559A209A08951F920F920FB60F92112467
:101650002F933F938F939F93AF93BF938091FA0102
:101660009091FB01A091FC01B091FD013091F90135
:1016700023E0230F2D3720F40196A11DB11D05C0D5
:1016800026E8230F0296A11DB11D2093F901809336
:10169000FA019093FB01A093FC01B093FD018091AE
:1016A000FE019091FF01A0910002B091010201960C
:1016B000A11DB11D8093FE019093FF01A093000234
:1016C000B0930102BF91AF919F918F913F912F9164
:1016D0000F900FBE0F901F9018952FB7F894609140
:1016E000FA017091FB018091FC019091FD012FBFE7
:1016F00008953FB7F8948091FE019091FF01A09169
:101700000002B091010226B5A89B05C02F3F19F039
:101710000196A11DB11D3FBFBA2FA92F982F882771
:10172000820F911DA11DB11DBC01CD0142E0660FCC
:10173000771F881F991F4A95D1F708958F929F921E
:10174000AF92BF92CF92DF92EF92FF926B017C013A
:101750000E94790B4B015C01C114D104E104F10436
:1017600001F10E94A6050E94790BDC01CB018819CA
:101770009909AA09BB09883E9340A105B10560F308
:1017800021E0C21AD108E108F10888EE880E83E052
:10179000981EA11CB11CC114D104E104F10419F775
:1017A000DBCFFF90EF90DF90CF90BF90AF909F90F6
:1017B0008F900895789484B5826084BD84B58160EB
:1017C00084BD85B5826085BD85B5816085BDEEE649
:1017D000F0E0808181608083E1E8F0E01082808128
:1017E00082608083808181608083E0E8F0E0808196
:1017F00081608083E1E9F0E0808182608083808184
:1018000081608083E0E9F0E0808181608083E1ECA9
:10181000F0E0808184608083808182608083808129
:1018200081608083E3ECF0E0808181608083E0EC84
:10183000F0E0808182608083E2ECF0E08081816072
:101840008083EAE7F0E08081846080838081826029
:101850008083808181608083808180688083089517
:1018600090E0FC013197EF30F105B0F5EA5AFF4FF7
:101870000C94720D809180008F7703C0809180005E
:101880008F7D80938000089580918000877FF9CFBD
:1018900084B58F7702C084B58F7D84BD0895809113
:1018A00090008F7707C0809190008F7D03C080915A
:1018B0009000877F8093900008958091C0008F777B
:1018C00003C08091C0008F7D8093C00008958091F7
:1018D000C200877F8093C2000895CF93DF9390E08A
:1018E000FC01E059FE4F2491FC01E157FE4F849129
:1018F000882361F190E0880F991FFC01E454FE4FAA
:10190000C591D491FC01E255FE4FA591B4916111AE
:1019100009C09FB7F8948881209582238883EC9131
:101920002E230BC0623061F49FB7F8943881822F68
:10193000809583238883EC912E2B2C939FBF06C028
:101940008FB7F894E8812E2B28838FBFDF91CF913A
:1019500008951F93CF93DF93282F30E0F901EF5ABA
:10196000FE4F8491F901E059FE4FD491F901E157FE
:10197000FE4FC491CC23C9F0162F81110E94300C68
:10198000EC2FF0E0EE0FFF1FE255FE4FA591B49152
:101990008FB7F894111105C09C91ED2FE095E923C4
:1019A00002C0EC91ED2BEC938FBFDF91CF911F9193
:1019B0000895EF92FF920F931F93CF93DF937B01D4
:1019C000FC01C281D38100E010E0209781F0E88122
:1019D000F9810280F381E02DB701CE01099597FDD1
:1019E00008C0080F191F0884D985C02DEECFC80183
:1019F00002C08FEF9FEFDF91CF911F910F91FF906A
:101A0000EF9008950F931F93CF93DF938B01FC0109
:101A1000C281D381209771F0E881F9810480F5813A
:101A2000E02DB801CE010995009731F40884D985DD
:101A3000C02DF0CF80E090E0DF91CF911F910F910A
:101A400008950F931F93CF93DF938B01FC01C28105
:101A5000D381209771F0E881F9810680F781E02D2C
:101A6000B801CE010995080F111D0884D985C02D34
:101A7000F0CFF8011082DF91CF911F910F9108955F
:101A80000F931F93CF93DF938B01FC01C281D3810E
:101A9000209771F0E881F9810190F081E02DB80183
:101AA000CE010995811105C00884D985C02DF0CFDC
:101AB00080E0DF91CF911F910F91089580910602F0
:101AC00081110DC082E08093020284E080930302C2
:101AD000109205021092040281E08093060282E0D7
:101AE00092E00895EE0FFF1F0590F491E02D099408
:101AF000CF93DF938230910510F482E090E0E09183
:101B00001002F091110220E030E0C0E0D0E0309708
:101B100011F14081518148175907C0F04817590702
:101B200061F482819381209719F09B838A832BC073
:101B3000909311028093100226C02115310519F0EF
:101B40004217530718F49A01BE01DF01EF0102802A
:101B5000F381E02DDCCF2115310509F1281B390B6C
:101B60002430310590F412968D919C911397611554
:101B7000710521F0FB019383828304C090931102CD
:101B800080931002FD01329644C0FD01E20FF31F65
:101B900081939193225031092D933C933AC0209127
:101BA0000E0230910F02232B41F42091020130915B
:101BB000030130930F0220930E0220910001309117
:101BC00001012115310541F42DB73EB740910401C3
:101BD00050910501241B350BE0910E02F0910F028C
:101BE000E217F307A0F42E1B3F0B2817390778F0F4
:101BF000AC014E5F5F4F2417350748F04E0F5F1F53
:101C000050930F0240930E028193919302C0E0E043
:101C1000F0E0CF01DF91CF9108950F931F93CF9301
:101C2000DF93009709F48CC0FC0132971382128273
:101C300000911002109111020115110581F420810B
:101C40003181820F931F20910E0230910F022817CD
:101C5000390779F5F0930F02E0930E0271C0D801B5
:101C600040E050E0AE17BF0750F412962D913C9122
:101C70001397AD012115310509F1D901F3CF9D016C
:101C8000DA013383228360817181860F971F821767
:101C9000930769F4EC0128813981260F371F2E5FE5
:101CA0003F4F318320838A819B8193838283452B9D
:101CB00029F4F0931102E093100242C01396FC93B2
:101CC000EE931297ED01499159919E01240F351F12
:101CD000E217F30771F480819181840F951F0296BA
:101CE00011969C938E938281938113969C938E93ED
:101CF0001297E0E0F0E0D80112968D919C91139735
:101D0000009719F0F8018C01F6CF8D919C91980104
:101D10002E5F3F4F820F931F20910E0230910F02D2
:101D20002817390769F4309729F41092110210929C
:101D3000100202C01382128210930F0200930E024F
:0E1D4000DF91CF911F910F910895F894FFCF7E
:101D4E000000120280000B000C000D00FFFFFFFFD1
:101D5E0000E100000000000000C180810000004C86
:101D6E006564207475726E6564206F666621004C22
:101D7E006564207475726E6564206F6E21000000BC
:101D8E000000B401B50111026002FB010B02030257
:101D9E0000000000C701C801F1032402FB010B0281
:101DAE000302BE01880100000000AE05F505D8054E
:101DBE00E805C405D5050D0A006E616E00696E66F4
:081DCE00006F7666002E000094
:00000001FF
