:100000000C94DE000C9406010C9406010C9406017D
:100010000C9406010C9406010C9406010C94060144
:100020000C9406010C9406010C945B050C94CD0510
:100030000C9406010C9406010C9406010C94060124
:100040000C9406010C9406010C9406010C94060114
:100050000C9406010C9406010C9406010C941105F5
:100060000C9406010C9406010C9406010C940601F4
:100070000C9406010C9406010C9406010C940601E4
:100080000C9406010C9406010C9406010C940601D4
:100090000C9406010C9406010C9406010C940601C4
:1000A0000C9406010C9406010C94060132013501F2
:1000B000240128012C0156015601560139013D0148
:1000C000410147014B0156015101080B0002020298
:1000D00001000904000001020200000524001001D3
:1000E0000524010101042402060524060001070578
:1000F000810310004009040100020A000000070506
:1001000002024000000705830240000004030904C6
:1001100012010002EF02014041233680000101027A
:10012000030141726475696E6F204C4C430041724B
:100130006475696E6F204C656F6E6172646F00004C
:10014000000000240027002A002D003000000000DD
:100150000200090F0000030401000C000000000071
:100160000000000000000000000000000408020180
:1001700010408040102040804080080204018040F0
:1001800020100201108010204040200000000025B7
:100190000028002B002E0031000404040404030492
:1001A0000502020202040302020202060606060615
:1001B0000604040202020404FD07E00911241FBE24
:1001C000CFEFDAE0DEBFCDBF11E0A0E0B1E0EAE6BC
:1001D000F6E102C005900D92AC32B107D9F721E0EB
:1001E000ACE2B1E001C01D92A43BB207E1F710E020
:1001F000CDEDD0E004C02197FE010E94F009CC3D76
:10020000D107C9F70E9475080C94280B0C940000C4
:1002100090E0FC01E35BFE4F4491FC01E459FE4F8A
:100220002491FC01E756FE4F8491882309F44DC0C8
:100230004423E1F150E0FA013197EF30F105B0F5D8
:10024000EA5AFF4F0C94F009909180009F7707C005
:10025000909180009F7D03C090918000977F909344
:10026000800024C094B59F7702C094B59F7D94BD53
:100270001DC0909190009F7707C0909190009F7D46
:1002800003C090919000977F909390000FC0909141
:10029000C0009F7703C09091C0009F7D9093C000E5
:1002A00005C09091C200977F9093C200E82FF0E0C4
:1002B000EE0FFF1FE557FE4FA591B4918FB7F8944D
:1002C000EC9120952E232C938FBF0895FC018091F3
:1002D0004A01811103C08FEF9FEF08959FB7F894F3
:1002E00082E08093E9002091F20030E012161306BC
:1002F00014F421E030E02115310559F0289884E606
:10030000809349018091F10080838091F2008823DD
:1003100019F09FBFC90108958BE68093E800F9CFDB
:100320002FB7F89483E08093E9009091E800892F3B
:10033000807295FF04C09091F20080E4891B2FBF6A
:100340000895CF92DF92EF92FF920F931F93CF9376
:10035000DF936C017A018B01C0E0D0E0CE15DF05A0
:1003600089F0D8016D918D01D601ED91FC9101903C
:10037000F081E02DC6010995892B11F47E0102C0A0
:100380002196ECCFC701DF91CF911F910F91FF9084
:10039000EF90DF90CF9008958091410181110DC0C1
:1003A00082E080933D0184E080933E011092400101
:1003B00010923F0181E0809341018DE391E0089527
:1003C000CF93DF931F92CDB7DEB76983DC01ED9148
:1003D000FC910280F381E02D41E050E0BE016F5FAF
:1003E0007F4F09950F90DF91CF91089583E080931F
:1003F000E9008091F200882319F08AE38093E800F5
:1004000008950E94900190E00895CF93DF931F928A
:10041000CDB7DEB7FC018485958597FD05C02FEF2C
:100420003FEF358724870BC0CE0101960E946601FD
:10043000019719F4898190E002C08FEF9FEF0F9030
:10044000DF91CF9108950F931F93CF93DF931F9266
:10045000CDB7DEB78C01FC018485958597FF0EC072
:10046000CE0101960E946601019719F4298130E0BE
:1004700002C02FEF3FEFF80135872487F80184850C
:1004800095850F90DF91CF911F910F910895FC01F9
:100490008485958597FD0BC09FB7F89482E0809383
:1004A000E9008091F2009FBF90E0019608959FB708
:1004B000F89482E08093E9008091F2009FBF90E081
:1004C0000895089580E090E00895CF93DF9390E041
:1004D000FC01E459FE4F2491FC01E756FE4F849144
:1004E000882361F190E0880F991FFC01E15CFE4FC9
:1004F000C591D491FC01E557FE4FA591B4916111CE
:1005000009C09FB7F8948881209582238883EC9155
:100510002E230BC0623061F49FB7F8943881822F8C
:10052000809583238883EC912E2B2C939FBF06C04C
:100530008FB7F894E8812E2B28838FBFDF91CF915E
:1005400008953FB7F8948091370190913801A091B8
:100550003901B0913A0126B5A89B05C02F3F19F08B
:100560000196A11DB11D3FBFBA2FA92F982F882733
:10057000820F911DA11DB11DBC01CD0142E0660F8E
:10058000771F881F991F4A95D1F708950F931F93DE
:10059000CF93DF93CDB7DEB729970FB6F894DEBFC0
:1005A0000FBECDBF0E94A1020091A9011091AA0126
:1005B0002091AB013091AC01DC01CB01801B910B90
:1005C000A20BB30B8C329140A105B10558F3F894FE
:1005D00080919F019091A0019A838983E091A3016A
:1005E000F091A401DF0111968081898790919B0190
:1005F000E091AD01F091AE018091AF01992309F432
:100600002EC09081982B98879081809589238F8325
:100610008F818C8388E08B8358856F8149853B81EE
:100620002C8189819A81508347FD252F3A9520831B
:10063000262F39F0441F00C000006083000000C076
:10064000F2CF38E04D9160830000019761F7F0939D
:10065000AE01E093AD0149873B832C8338C0908184
:10066000982B98879081809589238F838F818E83A3
:1006700088E08D8358856F8149853D812E818981F0
:100680009A81508347FD252F00C000C0208300C001
:1006900000C000C000C000C060830000262F3A9553
:1006A00041F0441F000000C000C000C000C000C0F6
:1006B000E8CF38E04D9100C0608300C0019709F792
:1006C000F093AE01E093AD0149873D832E839A8379
:1006D000898378940E94A1026093A9017093AA0172
:1006E0008093AB019093AC0129960FB6F894DEBFCE
:1006F0000FBECDBFDF91CF911F910F9108958F92C3
:100700009F92AF92BF92CF92DF92EF92FF926B01D6
:100710007C010E94A1024B015C01C114D104E104DF
:10072000F104F1F00E94A102DC01CB0188199909C2
:10073000AA09BB09883E9340A105B10570F321E0E9
:10074000C21AD108E108F10888EE880E83E0981EED
:10075000A11CB11CC114D104E104F10419F7DDCFCF
:10076000FF90EF90DF90CF90BF90AF909F908F90D1
:1007700008958F929F92AF92BF92CF92DF92EF92A5
:10078000FF920F931F93CF93DF935C016B017A016C
:1007900080910B01882309F45BC080914A01882372
:1007A00009F456C080913C0180FF05C08091E000B3
:1007B00082608093E000E70110E00AEF83E0882E7A
:1007C0009AE3992E2097D9F10E94900181110AC0D5
:1007D000015009F43DC061E070E080E090E00E94CB
:1007E0007F03F0CF282F30E0C217D3070CF48C2FF3
:1007F0004FB7F8948092E9009091E80095FF1DC0F2
:10080000282F30E0C21BD30BF601982F915020F017
:1008100081918093F100FACFC20ED31E112319F0FB
:100820009092E80009C08091E80085FD06C0909292
:10083000E80011E0209709F010E04FBFC3CF11117D
:10084000C3CF5D9884E680933B011E141F0444F0DF
:1008500081E090E0F5019383828380E090E001C025
:10086000C701DF91CF911F910F91FF90EF90DF9023
:10087000CF90BF90AF909F908F90089540912E01A0
:1008800050912F0120912C0130912D0142175307D7
:10089000B4F49091E8009570E1F39091E80092FD36
:1008A00019C08093F10080912E0190912F01019643
:1008B0008F739927892B19F48EEF8093E80080912C
:1008C0002E0190912F01019690932F0180932E017C
:1008D00081E0089580E00895CF92DF92EF92FF9239
:1008E0000F931F93CF93DF931F92CDB7DEB7182FCF
:1008F000062FE42E862F880F8E5F99830E943E0478
:1009000083E00E943E04F12EC12E9981D92E8C2DB8
:100910008F19801798F4F601E7FE02C0849101C098
:1009200080810E943E04182F80E00E943E048123B3
:10093000FFEFCF1ADF0A8111EACF01C081E00F90EB
:10094000DF91CF911F910F91FF90EF90DF90CF90AB
:100950000895DF92EF92FF920F931F93CF93DF934F
:10096000D82E8A017B01E40EF51EEB01CE15DF05C2
:1009700071F0D7FE03C0FE01849101C088810E94FE
:100980003E0421968111F2CF8FEF9FEF01C0C80185
:10099000DF91CF911F910F91FF90EF90DF9008951D
:1009A0000F931F93CF93DF931F92CDB7DEB782E0F3
:1009B000898342E450E06AEC70E080E80E94A90478
:1009C0000E94CC01DC0112960D911C911397011528
:1009D000110569F0D801ED91FC910280F381E02DC1
:1009E000BE016F5F7F4FC801099597FF07C08981DE
:1009F0000F90DF91CF911F910F910895F80100851D
:100A00001185E5CF615030F02091F100FC01208389
:100A10000196F8CF289884E68093490108950E94B2
:100A2000230B1F920F920FB60F9211242F933F9317
:100A30008F939F93AF93BF93809133019091340133
:100A4000A0913501B09136013091320123E0230F9E
:100A50002D3720F40196A11DB11D05C026E8230FF6
:100A60000296A11DB11D2093320180933301909312
:100A70003401A0933501B0933601809137019091F4
:100A80003801A0913901B0913A010196A11DB11D23
:100A90008093370190933801A0933901B0933A01C4
:100AA000BF91AF919F918F913F912F910F900FBE6A
:100AB0000F901F9018951F920F920FB60F9211244E
:100AC0008F939F938091E1009091E100937F9093A9
:100AD000E10083FF0FC01092E90091E09093EB00DA
:100AE0001092EC0092E39093ED0010924A0198E08E
:100AF0009093F00082FF20C093E09093E9009091E2
:100B0000F200992319F09AE39093E80090913B0149
:100B1000992339F090913B01915090933B01992397
:100B200089F190914901992339F0909149019150AF
:100B300090934901992341F184FF10C08091E20014
:100B40008E7E81608093E2008091E1008F7E8093B1
:100B5000E10080913C018E7E806111C080FF16C053
:100B60008091E2008E7E80618093E2008091E100BE
:100B70008E7E8093E10080913C018E7E8160809327
:100B80003C0104C05D9ACDCF289AD6CF9F918F911A
:100B90000F900FBE0F901F9018951F920F920FB6D7
:100BA0000F921124CF92DF92EF92FF920F931F9337
:100BB0002F933F934F935F936F937F938F939F9365
:100BC000AF93BF93EF93FF93CF93DF93CDB7DEB790
:100BD0006C97DEBFCDBF1092E9008091E80083FFE3
:100BE000EDC168E0CE0145960E94020582EF809338
:100BF000E8008D8987FF05C09091E80090FFFCCF49
:100C000003C09EEF9093E800982F907609F0C6C03D
:100C10009E892F89188D91110CC0803829F48091FC
:100C200031018093F10002C01092F1001092F100A6
:100C300048C1422F50E0512B913051F4811141C1F4
:100C40004130510509F03DC1809131018D7F0BC0CC
:100C5000933061F4811135C14130510509F031C142
:100C6000809131018260809331012BC1953041F434
:100C70008091E80080FFFCCF20682093E30021C131
:100C8000963009F05FC0EB8CFC8C1092E90010925A
:100C90002F0110922E01123091F510922D01109219
:100CA0002C010E94D00499E0BE016F5F7F4FDB01F1
:100CB000E92F1D92EA95E9F799831A8391E09E83C3
:100CC00090EA98879AEF998720912E0130912F0111
:100CD000275F3F4F3C832B838D831092E900109256
:100CE0002F0110922E01F0922D01E0922C0149E08B
:100CF00050E080E00E94A9040E94D004E2C0F0927B
:100D00002D01E0922C010E94CC01DC011296ED90A5
:100D1000FC901397E114F10409F4C0C0D701ED91E0
:100D2000FC910480F581E02DBE016B5E7F4FC70111
:100D30000995009719F00CF0C4C0C7C0F701E08412
:100D4000F184E8CF973009F4C0C0983021F481E0F5
:100D50008093F100B6C0993009F0B3C0837009F0F8
:100D6000B4C0E3E1F1E081E021E036E39081992332
:100D700061F08093E9002093EB0091919093EC0057
:100D80003093ED008F5F873089F78EE78093EA001C
:100D90001092EA008F8980934A0193C08B8D9C8DBD
:100DA0001092E90010922F0110922E0190932D01C4
:100DB00080932C01898D811156C08E899D89913A2D
:100DC00059F4813209F081C047E050E064E071E0FD
:100DD00080E00E94A90475C0913209F076C0833288
:100DE00089F4888D90E0982F88272F89822BA0E0A6
:100DF000B0E08093000190930101A0930201B093B1
:100E000003015FC0803269F48091E80082FFFCCF6B
:100E100067E084E091E00E9402058BEF8093E80098
:100E200006C0823209F04DC08F8980930B018091FA
:100E30003001882319F0EEEFFAE002C0E0E0F8E0BC
:100E40008091040190910501A0910601B0910701E4
:100E5000803B9440A105B10509F07BC080910B0156
:100E600080FF93C076C00E94CC01DC0112960D91E8
:100E70001C9113970115110541F1D801ED91FC91D9
:100E80000190F081E02DBE016B5E7F4FC801099596
:100E9000811117C0F80100851185ECCF113009F4DC
:100EA0004EC0133091F48F89882309F445C08230F5
:100EB00081F440E860E18EE291E00E946C048823B6
:100EC00021F08EEF8093E80079C081E28093EB00FF
:100ED00075C0813029F440E86BE082E291E0EDCF0B
:100EE000833099F70E94CC01DC011296ED90FC90C2
:100EF00013978E010F5F1F4F6801E114F10479F021
:100F0000D701ED91FC910680F781E02DB801C70172
:100F10000995080F111DF701E084F184EECFD80187
:100F20001C92F60101900020E9F73197BF016C197E
:100F30007D0940E0C601C1CF6CE071E002C060E114
:100F400071E06115710509F2FB01449150E080E800
:100F500040CF0FB6F894A895809160008861809387
:100F60006000109260000FBEA895EE3F2AE0F207E5
:100F700039F08091FE0A9091FF0A91838083A1CF7E
:100F80001092FF0A1092FE0A9CCFEE3F8AE0F8070B
:100F900031F0808191819093FF0A8093FE0A87E768
:100FA00097E7918380839BE088E10FB6F894A8953A
:100FB000809360000FBE9093600083CF6C960FB655
:100FC000F894DEBF0FBECDBFDF91CF91FF91EF91BF
:100FD000BF91AF919F918F917F916F915F914F9151
:100FE0003F912F911F910F91FF90EF90DF90CF9045
:100FF0000F900FBE0F901F90189510924E011092F7
:101000004D0188EE93E0A0E0B0E080934F01909313
:101010005001A0935101B09352018DE191E0909362
:101020004C0180934B018FEF9FEF90935801809379
:10103000570110929C011092A2011092A9011092E6
:10104000AA011092AB011092AC011092A80110926B
:10105000A50181E08093A60192E09093A70180937F
:101060009B018CE390E09093A00180939F010E94EC
:10107000F6099093A4018093A301009761F02CE3FB
:10108000FC0111922A95E9F784E190E090939E018A
:1010900080939D0108C01092A00110929F011092B0
:1010A0009E0110929D018AE08093A10180919C0194
:1010B000882339F061E08AE00E9465028AE00E949C
:1010C0000801E3EAF1E0E491F0E0EE0FFF1FE557DD
:1010D000FE4F859194919093AE018093AD01E6E728
:1010E000F1E0E491E093AF010895CF93DF9300D056
:1010F0001F92CDB7DEB7789484B5826084BD84B585
:10110000816084BD85B5826085BD85B5816085BD02
:1011100080916E00816080936E00109281008091BA
:101120008100826080938100809181008160809342
:101130008100809180008160809380008091910087
:1011400082608093910080919100816080939100F2
:10115000809190008160809390008091C1008460B4
:101160008093C1008091C10082608093C100809112
:10117000C10081608093C1008091C3008160809331
:10118000C3008091C00082608093C0008091C20043
:1011900081608093C20080917A00846080937A009D
:1011A00080917A00826080937A0080917A008160D9
:1011B00080937A0080917A00806880937A00109200
:1011C0004A011092310110923C018091D700816058
:1011D0008093D70080EA8093D80089B5806189BD6B
:1011E00089B5826089BD09B400FEFDCF61E070E081
:1011F00080E090E00E947F038091D8008F7C806126
:101200008093D8008091E000807F8093E0008091FF
:10121000E1008E7E8093E1008DE08093E200559A9C
:10122000209AEEEFFFE7859194918B3F9C4D19F446
:1012300081E0809330018091A10187FD07C061E0CA
:101240000E9465028091A1010E94080181E08093C3
:101250009C018091A3019091A401892B11F00E941F
:10126000C60230E0232E30E0332E1A8200E011E077
:101270003A8131952A812B8360E070E0E0E0F0E074
:1012800040E050E08FEF800F898380919D01909125
:101290009E014817590740F58981841B853558F40C
:1012A00082E0830F90E0A0E0B0E0DC01992788277E
:1012B0002B8123500DC08A3A68F48B81825090E0D4
:1012C000A0E0B0E0BA2FA92F982F882721E0230FA4
:1012D000822B28C08B81815090E0A0E0B0E0DC013F
:1012E00099278827932B1EC08091A3019091A40178
:1012F000892B11F00E94C60264E170E080E090E06A
:101300000E947F03015011092A8123502A8301156D
:10131000110509F0ADCF2114310409F4A6CF0E94C4
:101320000000A3CF2D0166247724892E9A2EAB2EA0
:10133000BB24F82CE82E2091A201222391F0C22E8A
:10134000D12CC49C7001C59CF00CD49CF00C1124D1
:101350004F2C829E40011124F92C829FC001112440
:10136000E92E2091A801A091A5018091A30190915F
:10137000A4012A1303C08E0F9F1F06C0860F971F5C
:10138000DC01A20FB11D1C922091A501DC01A20F6E
:10139000B11D4C922091A601DC01A20FB11DFC925F
:1013A0002091A701DC01A20FB11DEC924F5F5F4FAE
:1013B00033966C5F7F4F8B8183508B833D5F65CF0E
:1013C0008091A3019091A401009711F00E948B0AD3
:1013D0008091A10187FD03C060E00C94650208952F
:1013E000EE0FFF1F0590F491E02D0994CF93DF934A
:1013F0008230910510F482E090E0E091B201F0912A
:10140000B30120E030E0C0E0D0E0309711F140813E
:10141000518148175907C0F04817590761F4828174
:101420009381209719F09B838A832BC09093B301FB
:101430008093B20126C02115310519F042175307D8
:1014400018F49A01BE01DF01EF010280F381E02D63
:10145000DCCF2115310509F1281B390B243031056A
:1014600090F412968D919C9113976115710521F05E
:10147000FB019383828304C09093B3018093B201F4
:10148000FD01329644C0FD01E20FF31F8193919359
:10149000225031092D933C933AC02091B0013091F4
:1014A000B101232B41F420910E0130910F013093B3
:1014B000B1012093B00120910C0130910D01211553
:1014C000310541F42DB73EB7409110015091110103
:1014D000241B350BE091B001F091B101E217F30745
:1014E000A0F42E1B3F0B2817390778F0AC014E5F94
:1014F0005F4F2417350748F04E0F5F1F5093B1011F
:101500004093B0018193919302C0E0E0F0E0CF01FD
:10151000DF91CF9108950F931F93CF93DF9300979F
:1015200009F48CC0FC013297138212820091B2013F
:101530001091B3010115110581F420813181820FD1
:10154000931F2091B0013091B1012817390779F527
:10155000F093B101E093B00171C0D80140E050E0D8
:10156000AE17BF0750F412962D913C911397AD0121
:101570002115310509F1D901F3CF9D01DA0133833A
:10158000228360817181860F971F8217930769F408
:10159000EC0128813981260F371F2E5F3F4F3183A1
:1015A00020838A819B8193838283452B29F4F09346
:1015B000B301E093B20142C01396FC93EE931297ED
:1015C000ED01499159919E01240F351FE217F30750
:1015D00071F480819181840F951F029611969C93DE
:1015E0008E938281938113969C938E931297E0E061
:1015F000F0E0D80112968D919C911397009719F005
:10160000F8018C01F6CF8D919C9198012E5F3F4F90
:10161000820F931F2091B0013091B1012817390733
:1016200069F4309729F41092B3011092B20102C00C
:10163000138212821093B1010093B001DF91CF9118
:101640001F910F91089581E090E0F8940C94280B7D
:1016500010E0CDEDD0E004C0FE010E94F00921961B
:0A166000CE3DD107C9F7F894FFCF83
:10166A00FFFFFFFF00E10000000000000000B401DE
:10167A00800000C1808100000000000000E001B984
:0C168A00030102F60147020502230200E2
:00000001FF
