:100000000C94E1010C9409020C9409020C9409026D
:100010000C9409020C9409020C9409020C94090234
:100020000C9409020C9409020C943D050C94AF0544
:100030000C9409020C9409020C9409020C94090214
:100040000C9409020C9409020C9409020C94090204
:100050000C9409020C9409020C9409020C94F30408
:100060000C9409020C9409020C9409020C940902E4
:100070000C9409020C9409020C9409020C940902D4
:100080000C9409020C9409020C9409020C940902C4
:100090000C9478090C9409020C9409020C9409023E
:1000A0000C9409020C9409020C940902A403A703FE
:1000B00096039A039E03C803C803C803AB03AF03A8
:1000C000B303B903BD03C803C303080B0002020254
:1000D00001000904000001020200000524001001D3
:1000E0000524010101042402060524060001070578
:1000F000810310004009040100020A000000070506
:1001000002024000000705830240000004030904C6
:1001100012010002EF02014041233680000101027A
:10012000030141726475696E6F204C4C430041724B
:100130006475696E6F204C656F6E6172646F00004C
:10014000000000250028002B002E003100040404CC
:10015000040403040502020202040302020202066E
:10016000060606060604040202020404040802014C
:1001700010408040102040804080080204018040F0
:1001800020100201108010204040200000000200DA
:10019000090F0000030401000C0000000000000033
:1001A00000000000000000000000AED580A81FD3B2
:1001B00000408D142002A1C8DA02817FD9F1DB4012
:1001C000A4A6AF00030C0F30333C3FC0C3CCCFF02C
:1001D000F3FCFF00000507206000000000000000A5
:1001E0005F00000007000700147F147F14242A7F9B
:1001F0002A12231308646236495620500008070368
:1002000000001C2241000041221C002A1C7F1C2AE5
:1002100008083E0808008070300008080808080038
:100220000060600020100804023E5149453E004233
:100230007F400072494949462141494D3318141203
:100240007F1027454545393C4A494931412111092B
:10025000073649494936464949291E00001400001D
:100260000040340000000814224114141414140037
:100270004122140802015909063E415D594E7C1283
:1002800011127C7F494949363E414141227F41411B
:10029000413E7F494949417F090909013E41415198
:1002A000737F0808087F00417F41002040413F01E3
:1002B0007F081422417F404040407F021C027F7F24
:1002C0000408107F3E4141413E7F090909063E4135
:1002D00051215E7F09192946264949493203017F88
:1002E00001033F4040403F1F2040201F3F40384017
:1002F0003F631408146303047804036159494D43B0
:10030000007F4141410204081020004141417F0427
:10031000020102044040404040000307080020540E
:100320005478407F2844443838444444283844446E
:10033000287F385454541800087E090218A4A49C3D
:10034000787F0804047800447D40002040403D0050
:100350007F1028440000417F40007C047804787CB2
:10036000080404783844444438FC18242418182419
:100370002418FC7C08040408485454542404043F02
:1003800044243C4040207C1C2040201C3C40304009
:100390003C44281028444C9090907C4464544C4435
:1003A00000083641000000770000004136080002D6
:1003B000010204023C2623263CAA011980200000E9
:1003C000C30C11241FBECFEFDAE0DEBFCDBF11E0BA
:1003D000A0E0B1E0E0EEFCE102C005900D92A8368D
:1003E000B107D9F722E0A8E6B1E001C01D92A63816
:1003F000B207E1F711E0C1EED1E004C02197FE01A0
:100400000E94630EC03ED107C9F70E94F00C0C9405
:100410006E0E0C940000FC0180917001811103C0EC
:100420008FEF9FEF08959FB7F89482E08093E900E3
:100430002091F20030E01216130614F421E030E0AF
:100440002115310559F0289884E680936F01809139
:10045000F10080838091F200882319F09FBFC901C9
:1004600008958BE68093E800F9CF2FB7F89483E0E6
:100470008093E9009091E800892F807295FF04C075
:100480009091F20080E4891B2FBF08958091E501CF
:1004900081110DC082E08093E10184E08093E2014C
:1004A0001092E4011092E30181E08093E50181EE76
:1004B00091E00895CF93DF931F92CDB7DEB76983A4
:1004C000DC01ED91FC910280F381E02D41E050E0F0
:1004D000BE016F5F7F4F09950F90DF91CF91089517
:1004E00083E08093E9008091F200882319F08AE389
:1004F0008093E80008950E94350290E00895CF931C
:10050000DF931F92CDB7DEB7FC018485958597FDFB
:1005100005C02FEF3FEF358724870BC0CE01019632
:100520000E940B02019719F4898190E002C08FEFBD
:100530009FEF0F90DF91CF9108950F931F93CF936B
:10054000DF931F92CDB7DEB78C01FC0184859585C2
:1005500097FF0EC0CE0101960E940B02019719F47D
:10056000298130E002C02FEF3FEFF8013587248763
:10057000F801848595850F90DF91CF911F910F91A0
:100580000895FC018485958597FD0BC09FB7F8946D
:1005900082E08093E9008091F2009FBF90E0019695
:1005A00008959FB7F89482E08093E9008091F2006B
:1005B0009FBF90E008950F931F93CF93DF931F92F7
:1005C000CDB7DEB782E0898342E450E06AEC70E0A8
:1005D00080E80E9444090E944602DC0112960D91B7
:1005E0001C9113970115110569F0D801ED91FC914B
:1005F0000280F381E02DBE016F5F7F4FC801099536
:1006000097FF07C089810F90DF91CF911F910F91C4
:100610000895F80100851185E5CFCF92DF92EF9222
:10062000FF920F931F93CF93DF931F92CDB7DEB747
:10063000182F062FE42E862F880F8E5F99830E9435
:10064000160983E00E941609F12EC12E9981D92E38
:100650008C2D8F19801798F4F601E7FE02C0849163
:1006600001C080810E941609182F80E00E9416099F
:100670008123FFEFCF1ADF0A8111EACF01C081E0A9
:100680000F90DF91CF911F910F91FF90EF90DF902E
:10069000CF900895009769F0FC0101900020E9F7E0
:1006A0003197AF01481B590BBC0188EC91E00C94C9
:1006B000DF0780E090E008950F930091CF01069549
:1006C0000695069501504091CE01415020E060E032
:1006D00088EC91E00E94EF0A81E09091D2019111A3
:1006E00001C080E08093D20160E488EC91E00F913A
:1006F0000C94A60A90E0FC01E557FE4F4491FC01E2
:10070000E459FE4F2491FC01E35BFE4F8491882362
:1007100009F44CC04423E1F150E0FA013197EF3085
:10072000F105B0F5EA5AFF4F0C94630E90918000EA
:100730009F7707C0909180009F7D03C090918000BB
:10074000977F9093800024C094B59F7702C094B5A2
:100750009F7D94BD1DC0909190009F7707C09091A0
:1007600090009F7D03C090919000977F90939000A0
:100770000FC09091C0009F7703C09091C0009F7DF3
:100780009093C00005C09091C200977F9093C200E3
:10079000E82FF0E0EE0FFF1FE15CFE4FA591B49152
:1007A0008FB7F894EC912E2B2C938FBF0895209146
:1007B000BB019091BA01213208F04AC080919701A3
:1007C0008111FCCF32E03093970131E030939601F4
:1007D0003FEF309395011092940120939301AAE981
:1007E000B1E043E751E0FA013E2F341B321718F411
:1007F0003D913193F9CF1092720120917201990FBE
:10080000922B9093720190917101913061F410924A
:100810007101909172019093BB009091BC0093FD87
:10082000F8CF95EC01C095EE9093BC0090919701A4
:100830009230E1F3909195019F3F79F0809195017D
:10084000803241F080919501803331F084E005C021
:1008500081E003C082E001C083E010929901109210
:10086000BB011092980108953FB7F8948091DC0184
:100870009091DD01A091DE01B091DF0126B5A89B2A
:1008800005C02F3F19F00196A11DB11D3FBFBA2F22
:10089000A92F982F8827820F911DA11DB11DBC0182
:1008A000CD0142E0660F771F881F991F4A95D1F747
:1008B0000895CF92DF92EF92FF920E9434046B0171
:1008C0007C010E943404DC01CB018C199D09AE0926
:1008D000BF09883E9340A105B10598F3FF90EF90C2
:1008E000DF90CF9008958F929F92AF92BF92CF9258
:1008F000DF92EF92FF920F931F93CF93DF936C01E0
:100900005B017A0180910B01882309F456C0809124
:100910007001882309F451C080916E0180FF05C0E9
:100920008091E00082608093E000E70110E00AEF30
:1009300083E0882E9AE3992E2097B1F10E94350228
:10094000811105C00150C9F10E945904F5CF282F2B
:1009500030E0C217D3070CF48C2F4FB7F894809275
:10096000E9009091E80095FF1DC0282F30E0C21BE0
:10097000D30BF501982F915020F081918093F100D5
:10098000FACFA20EB31E112319F09092E80009C00D
:100990008091E80085FD06C09092E80011E0209764
:1009A00009F010E04FBFC8CF1111C8CF5D9884E6A1
:1009B0008093E0011E141F0444F081E090E0F601F2
:1009C0009383828380E090E001C0C701DF91CF91E3
:1009D0001F910F91FF90EF90DF90CF90BF90AF905D
:1009E0009F908F9008951F920F920FB60F9211242F
:1009F0002F933F938F939F93AF93BF938091D80191
:100A00009091D901A091DA01B091DB013091D70129
:100A100023E0230F2D3720F40196A11DB11D05C041
:100A200026E8230F0296A11DB11D2093D7018093C4
:100A3000D8019093D901A093DA01B093DB018091A2
:100A4000DC019091DD01A091DE01B091DF01019602
:100A5000A11DB11D8093DC019093DD01A093DE0107
:100A6000B093DF01BF91AF919F918F913F912F91F3
:100A70000F900FBE0F901F9018951F920F920FB6F8
:100A80000F9211248F939F938091E1009091E10048
:100A9000937F9093E10083FF0FC01092E90091E0F3
:100AA0009093EB001092EC0092E39093ED00109283
:100AB000700198E09093F00082FF20C093E0909343
:100AC000E9009091F200992319F09AE39093E800DD
:100AD0009091E001992339F09091E0019150909329
:100AE000E001992389F190916F01992339F0909158
:100AF0006F01915090936F01992341F184FF10C0D1
:100B00008091E2008E7E81608093E2008091E1001E
:100B10008F7E8093E10080916E018E7E806111C096
:100B200080FF16C08091E2008E7E80618093E2009B
:100B30008091E1008E7E8093E10080916E018E7E37
:100B4000816080936E0104C05D9ACDCF289AD6CF84
:100B50009F918F910F900FBE0F901F9018951F922D
:100B60000F920FB60F921124CF92DF92EF92FF9265
:100B70000F931F932F933F934F935F936F937F93A5
:100B80008F939F93AF93BF93EF93FF93CF93DF9395
:100B9000CDB7DEB76C97DEBFCDBF1092E900809174
:100BA000E80083FFEDC168E0CE0145960E946B0925
:100BB00082EF8093E8008D8987FF05C09091E8005F
:100BC00090FFFCCF03C09EEF9093E800982F9076A3
:100BD00009F0C6C09E892F89188D91110CC08038EC
:100BE00029F480916D018093F10002C01092F10010
:100BF0001092F10048C1422F50E0512B913051F436
:100C0000811141C14130510509F03DC180916D0113
:100C10008D7F0BC0933061F4811135C14130510596
:100C200009F031C180916D01826080936D012BC10B
:100C3000953041F48091E80080FFFCCF206820933C
:100C4000E30021C1963009F05FC0EB8CFC8C109260
:100C5000E90010926B0110926A01123091F5109226
:100C60006901109268010E94DB0299E0BE016F5F8A
:100C70007F4FDB01E92F1D92EA95E9F799831A83EB
:100C800091E09E8390EA98879AEF998720916A0174
:100C900030916B01275F3F4F3C832B838D831092F4
:100CA000E90010926B0110926A01F0926901E092E2
:100CB000680149E050E080E00E9444090E94DB02A4
:100CC000E2C0F0926901E09268010E944602DC01F4
:100CD0001296ED90FC901397E114F10409F4C0C052
:100CE000D701ED91FC910480F581E02DBE016B5E92
:100CF0007F4FC7010995009719F00CF0C4C0C7C019
:100D0000F701E084F184E8CF973009F4C0C098304F
:100D100021F481E08093F100B6C0993009F0B3C0AE
:100D2000837009F0B4C0EDE0F1E081E021E036E34A
:100D30009081992361F08093E9002093EB009191D9
:100D40009093EC003093ED008F5F873089F78EE74A
:100D50008093EA001092EA008F898093700193C01B
:100D60008B8D9C8D1092E90010926B0110926A019C
:100D70009093690180936801898D811156C08E8995
:100D80009D89913A59F4813209F081C047E050E0E1
:100D900064E071E080E00E94440975C0913209F07E
:100DA00076C0833289F4888D90E0982F88272F8928
:100DB000822BA0E0B0E08093000190930101A0930A
:100DC0000201B09303015FC0803269F48091E800B2
:100DD00082FFFCCF67E084E091E00E946B098BEF1B
:100DE0008093E80006C0823209F04DC08F8980935D
:100DF0000B0180916C01882319F0EEEFFAE002C03C
:100E0000E0E0F8E08091040190910501A0910601D5
:100E1000B0910701803B9440A105B10509F07BC06A
:100E200080910B0180FF93C076C00E944602DC01D6
:100E300012960D911C9113970115110541F1D801DE
:100E4000ED91FC910190F081E02DBE016B5E7F4F32
:100E5000C8010995811117C0F80100851185ECCFF3
:100E6000113009F44EC0133091F48F89882309F4AE
:100E700045C0823081F440E860E18EE291E00E945A
:100E80000D03882321F08EEF8093E80079C081E282
:100E90008093EB0075C0813029F440E86BE082E27A
:100EA00091E0EDCF833099F70E944602DC01129663
:100EB000ED90FC9013978E010F5F1F4F6801E114B6
:100EC000F10479F0D701ED91FC910680F781E02DD6
:100ED000B801C7010995080F111DF701E084F184DD
:100EE000EECFD8011C92F60101900020E9F731976E
:100EF000BF016C197D0940E0C601C1CF6CE071E013
:100F000002C060E171E06115710509F2FB014491D5
:100F100050E080E840CF0FB6F894A895809160002B
:100F2000886180936000109260000FBEA895EE3F2C
:100F30002AE0F20739F08091FE0A9091FF0A91832E
:100F40008083A1CF1092FF0A1092FE0A9CCFEE3F41
:100F50008AE0F80731F0808191819093FF0A8093B5
:100F6000FE0A87E797E7918380839BE088E10FB6CD
:100F7000F894A895809360000FBE9093600083CF93
:100F80006C960FB6F894DEBF0FBECDBFDF91CF9148
:100F9000FF91EF91BF91AF919F918F917F916F9151
:100FA0005F914F913F912F911F910F91FF90EF9083
:100FB000DF90CF900F900FBE0F901F901895CF929B
:100FC000DF92EF92FF920F931F93CF93DF936C0109
:100FD0007A018B01C0E0D0E0CE15DF0589F0D801A1
:100FE0006D918D01D601ED91FC910190F081E02D84
:100FF000C6010995892B11F47E0102C02196ECCF20
:10100000C701DF91CF911F910F91FF90EF90DF907B
:10101000CF90089585ED8093BC008091BC0084FD45
:10102000FCCF10929701089540915F02262F30E087
:10103000240F311D21323105DCF420919701243039
:10104000C9F4FC0180E090E0861758F430915F020B
:101050002191DC01A35CBD4FA30FB11D2C93019620
:10106000F3CF80915F02680F60935F0280E0089584
:1010700081E0089582E00895CF93DF93EC019C8195
:101080008E81981758F4E881F9810084F185E02D6C
:1010900042E0CE0109958C818F5F8C83DF91CF91E7
:1010A0000895089581E090E03091850220918402B6
:1010B000321710F480E090E09195819591090895A0
:1010C0008091850290918402891730F48F5F80931C
:1010D000850280E090E008958FEF9FEF0895809162
:1010E000840290E020918502821B91090895CF929D
:1010F000DF92EF92FF920F931F93CF93DF937C01C8
:10110000262F972F8A0180919801882391F0C62F6E
:10111000D72F6E01C40ED51ECC15DD0571F0699177
:10112000D701ED91FC910190F081E02DC701099567
:10113000F3CF642F822F0E941408C801DF91CF9152
:101140001F910F91FF90EF90DF90CF900895CF9374
:10115000DF931F92CDB7DEB76983209198012223D8
:10116000D1F02091BB01203240F021E030E0FC01C1
:101170003383228380E090E015C080919901E82FAD
:10118000F0E0E656FE4F998190838F5F809399013E
:101190008093BB0105C061E0CE0101960E94140856
:1011A00081E090E00F90DF91CF910895089580E065
:1011B00090E008950E94690E0F931F93CF93DF93E1
:1011C000EC01062F142F8E85813120F4882329F01D
:1011D000411103C00E94D7031E868E85811113C062
:1011E0008D8591E0909398018093BA0110929901B6
:1011F0001092BB01112311F060E401C060E08CEBA0
:1012000091E00E94A708602F8CEB91E00E94A70854
:10121000123021F48E858F5F8E8703C00E94D70322
:101220001E86DF91CF911F910F91089540916A0121
:1012300050916B0120916801309169014217530769
:10124000B4F49091E8009570E1F39091E80092FD7C
:1012500019C08093F10080916A0190916B01019611
:101260008F739927892B19F48EEF8093E800809172
:101270006A0190916B01019690936B0180936A01D2
:1012800081E0089580E00895DF92EF92FF920F933E
:101290001F93CF93DF93D82E8A017B01E40EF51EB6
:1012A000EB01CE15DF0571F0D7FE03C0FE0184917E
:1012B00001C088810E94160921968111F2CF8FEF1B
:1012C0009FEF01C0C801DF91CF911F910F91FF9057
:1012D000EF90DF900895615030F02091F100FC0113
:1012E00020830196F8CF289884E680936F010895B3
:1012F0001F920F920FB60F9211242F933F934F938B
:101300005F936F937F938F939F93AF93BF93EF936D
:10131000FF938091B900887F803609F49CC068F5FE
:10132000883209F45BC090F4803109F454C038F479
:10133000882309F4F6C0883009F44DC0F6C088311E
:1013400009F44CC0803209F45DC0EFC0803409F468
:1013500068C048F4803309F455C0883309F0E5C00B
:1013600080939501D8C0803509F44FC0883509F4C1
:101370005DC0883409F0D9C0D6C0883909F4C7C027
:10138000A8F4883709F467C038F4883609F463C0D4
:10139000803709F460C0C9C0883809F4B8C0803902
:1013A00009F45FC0803809F0C0C05BC0803B09F41D
:1013B00086C038F4803A09F466C0883A09F47FC0E0
:1013C000B4C0803C09F4A7C0883C09F4A4C0883BA1
:1013D00009F48AC0AAC08091720110C09091940152
:1013E00080919301981770F5E091940181E08E0F40
:1013F00080939401F0E0ED58FE4F80818093BB0014
:1014000085EC86C0809395018EC0E091940181E0C7
:101410008E0F809394018091BB00F0E0ED58FE4F59
:10142000808390919401809193016EC0E09194012A
:1014300081E08E0F809394018091BB00F0E0ED5825
:10144000FE4F80838091960181116DC081E0809371
:10145000710184EA61C083E0809397011092830256
:10146000CFCF80918302803208F051C0E091830297
:1014700081E08E0F809383028091BB00F0E0ED59F4
:10148000FD4F8083BDCF85EC8093BC001092970107
:1014900080918302803230F4E0918302F0E0ED59D4
:1014A000FD4F10826091830270E0E0916102F09143
:1014B000620283E692E009951092830236C084E0CE
:1014C000809397011092600210925F02E0915D029A
:1014D000F0915E02099580915F02811105C081E063
:1014E00080935F0210923D02E091600281E08E0FD6
:1014F00080936002F0E0E35CFD4F80818093BB004D
:101500009091600280915F02981708F479CF85E886
:101510008093BC000AC085EC8093BC0010929701B8
:1015200004C0109295010E940A08FF91EF91BF91AB
:10153000AF919F918F917F916F915F914F913F916B
:101540002F910F900FBE0F901F901895DC01ED9119
:10155000FC910084F185E02D40E009940F931F93E6
:10156000CF938C01FC0164839085C62FC90F6C2F2B
:101570006F70C8010E94A60A6C2F62956F7060613F
:10158000C801CF911F910F910C94A60A0F931F933E
:10159000CF93DF931F92CDB7DEB78C01FC0186811C
:1015A000681728F4C80149830E94AE0A4981F801EE
:1015B0008781869586958695481758F44583642FCC
:1015C000606BC8010F90DF91CF911F910F910C9428
:1015D000A60A0F90DF91CF911F910F910895CF929E
:1015E000DF92EF92FF920F931F93CF93DF93EC0163
:1015F000F62EC42ED22E8F81869586958695081755
:1016000010F00FEF080F1D2D011780F0412F6F2DE7
:10161000CE010E94C60AEF2CCE1430F060E0CE015D
:101620000E943C08E394F8CF1F5FEECF4D2D6F2D45
:10163000CE01DF91CF911F910F91FF90EF90DF903E
:10164000CF900C94C60A2F923F924F925F926F9266
:101650007F928F929F92AF92BF92CF92DF92EF9242
:10166000FF920F931F93CF93DF93CDB7DEB72797EA
:101670000FB6F894DEBF0FBECDBFDC011B960D91F7
:101680001C911C970115110509F462C19F838E837B
:10169000F801B49131964491319654903196A491C9
:1016A000EA2EF12CF7E0EF0EF11C23E0F594E7941D
:1016B0002A95E1F7EB82F801349674913196E49122
:1016C000671758F0862F90E02E2F30E0F901E70FD2
:1016D000F11D8E179F070CF473C06D3069F4AE8155
:1016E000BF8116968C91882309F467C060E08E81D3
:1016F0009F810E94AE0A61C06A3009F029C1EE8163
:10170000FF8181856581D62E8E9DD00C1124878125
:10171000869586958695D81630F08285882319F0AF
:1017200082E08287D12C4D2D60E08E819F810E94C6
:10173000C60AAE81BF811A968C911A97823008F43E
:101740003CC015962C9115971B96ED91FC911C971A
:10175000309741F03396E49119960C91E09FE02D7B
:10176000112401C0E0E08FEF820F0E2F10E0095F1F
:101770001F4F93E0159507959A95E1F7080FEE81B5
:10178000FF81468141506481CF010E94EF0AAE8102
:10179000BF8119968C9119976D2D8E9D600D112426
:1017A000660F660F660F17968C91861708F460E037
:1017B00060648E819F810E94A60A81E090E0CAC089
:1017C00050E05B2BC8010696671BEE81FF81F18517
:1017D000F9834230510588F4452B09F019825E9C4B
:1017E00090015F9C300D1124629F8001639F100D5A
:1017F0001124080F191F412C24C0EA2FE77021F093
:1018000048E0442E4E1A01C0412CA82FFC0140E0B4
:1018100050E07E2F7A1B761728F47491470F511DE4
:101820003196F7CFFC01E60FF11D54904E9D8001DB
:101830004F9D100D5E9D100D1124020F131F080FF8
:10184000191FAE81BF811496BC91BC83EE81FF81CC
:101850003580652C712CCC24C394D12C812C912CF7
:101860007FEF7C0D7A838B81781708F05FC0212C85
:10187000AE81BF8119968C91281608F051C07A81EB
:10188000711102C0222051F0AE81BF8115964C919A
:1018900015974F5F6C81CD010E94C60AA12CB12C17
:1018A000A51488F5F501E80DF91DE00FF11F24914D
:1018B000442061F0CE14DF0449F4E22FF0E0042C60
:1018C00002C0F595E7950A94E2F72E2FEE81FF818D
:1018D0008185823079F4E22F2110E295EF70F0E0FB
:1018E000ED53FE4F2491622F8E819F812D830E94A4
:1018F0003C082D81622F8E819F810E943C08FFEF62
:10190000AF1ABF0ACDCFB12C7981B71639F060E09C
:101910008E819F810E943C08B394F6CF2394A8CF78
:10192000860C971CBFEFCB1ADB0A9ACFAE81BF8122
:1019300017968C911797869586958695381608F098
:101940003CCF15963C921597632D606BCD0133CF3C
:1019500080E090E027960FB6F894DEBF0FBECDBFB3
:10196000DF91CF911F910F91FF90EF90DF90CF907B
:10197000BF90AF909F908F907F906F905F904F90AF
:101980003F902F900895EDEEF1E01382128288EEE1
:1019900093E0A0E0B0E084839583A683B78327E13A
:1019A00031E0318320832FEF3FEF35872487ECEB45
:1019B000F1E01382128284839583A683B78389E240
:1019C00091E091838083E8ECF1E01382128281E060
:1019D0008187148613868BE391E091838083089539
:1019E000CF93DF93CDB7DEB7A1970FB6F894DEBFE4
:1019F0000FBECDBF789484B5826084BD84B581600C
:101A000084BD85B5826085BD85B5816085BD8091C9
:101A10006E00816080936E00109281008091810041
:101A20008260809381008091810081608093810039
:101A3000809180008160809380008091910082601D
:101A400080939100809191008160809391008091BA
:101A500090008160809390008091C10084608093A9
:101A6000C1008091C10082608093C1008091C1005B
:101A700081608093C1008091C30081608093C30026
:101A80008091C00082608093C0008091C20081601C
:101A90008093C20080917A00846080937A00809164
:101AA0007A00826080937A0080917A0081608093CE
:101AB0007A0080917A00806880937A001092700199
:101AC00010926D0110926E018091D7008160809319
:101AD000D70080EA8093D80089B5806189BD89B537
:101AE000826089BD09B400FEFDCF0E945904809137
:101AF000D8008F7C80618093D8008091E000807F47
:101B00008093E0008091E1008E7E8093E1008DE083
:101B10008093E200559A209AEEEFFFE78591949129
:101B20008B3F9C4D19F481E080936C0110928502EB
:101B300010928402109299011092BB0110929701A9
:101B400081E0809396011092710182E00E947A03F5
:101B500083E00E947A038091B9008E7F8093B90060
:101B60008091B9008D7F8093B90088E48093B8009C
:101B700085E48093BC008CE08093B8001092D6017D
:101B80008CE38093D5011092CC011092CD01E9EB4A
:101B9000F3E085919491E82EEBEBF3E0F490ECEB1D
:101BA000F3E0E491E093CE01EDEBF3E0E491E09318
:101BB000CF01EEEBF3E0E491E093D0018C01802FB4
:101BC0008E198F1548F4F801649188EC91E00E9419
:101BD000A60A0F5F1F4FF3CF1092D2010E945C0341
:101BE00083ED91E09093D4018093D3010E9434045B
:101BF0006B017C010E945C0385E491E00E944A0332
:101C000080E591E00E944A0382E08093D10183E560
:101C100091E00E944A0380E591E00E944A0381E03E
:101C20008093D1018EE591E00E944A030E94340422
:101C30009B01AC012C193D094E095F0919A28E01C7
:101C40000F5D1F4F8AE0C82ED12CE12CF12CCA0168
:101C5000B901A70196010E94410E605DF8016293EF
:101C60008F01211531054105510589F7CF010E94EA
:101C70004A0300E010E001151105E9F30E9400009D
:101C8000FACFA1E21A2EAA1BBB1BFD010DC0AA1F91
:101C9000BB1FEE1FFF1FA217B307E407F50720F0D5
:101CA000A21BB30BE40BF50B661F771F881F991F50
:101CB0001A9469F760957095809590959B01AC0199
:101CC000BD01CF010895EE0FFF1F0590F491E02DA7
:101CD000099481E090E0F8940C946E0EF894FFCF94
:101CE000FFFFFFFF00E100000000000000C1808155
:101CF000000000000000005A0273047B027002C161
:101D0000027F029D0200000000A7087708D7085153
:101D1000086F086008520800000000230BDF07D797
:101D200008D608DC08736574315820746573740034
:101D30000D0A0073657432582074657374006D6900
:081D400063726F733A2000008A
:00000001FF
