:100000000C94E5000C940D010C940D010C940D0161
:100010000C940D010C940D010C940D010C940D0128
:100020000C940D010C940D010C9488040C94FA04AA
:100030000C940D010C940D010C940D010C940D0108
:100040000C940D010C940D010C940D010C940D01F8
:100050000C940D010C940D010C940D010C943E04B4
:100060000C940D010C940D010C940D010C940D01D8
:100070000C940D010C940D010C940D010C940D01C8
:100080000C940D010C940D010C940D010C940D01B8
:100090000C940D010C940D010C940D010C940D01A8
:1000A0000C940D010C940D010C940D015E01610185
:1000B000500154015A0182018201820165016901E6
:1000C0006D017301770182017D01080B00020202BC
:1000D00001000904000001020200000524001001D3
:1000E0000524010101042402060524060001070578
:1000F000810310004009040100020A000000070506
:1001000002024000000705830240000004030904C6
:1001100012010002EF02014041233680000101027A
:10012000030141726475696E6F204C4C430041724B
:100130006475696E6F204C656F6E6172646F00004C
:10014000000000240027002A002D003000000000DD
:1001500000250028002B002E0031000000000023A5
:1001600000260029002C002F0004040404040304CA
:100170000502020202040302020202060606060645
:100180000604040202020404040802011040804034
:1001900010204080408008020401804020100201AD
:1001A000108010204040200000000200090F0000D5
:1001B000030401000C00000000000000000000002B
:1001C000000000000000DD08F80B11241FBECFEF77
:1001D000DAE0DEBFCDBF22E0AAE9B1E001C01D92A6
:1001E000A63CB207E1F711E0A0E0B1E0ECEEFCE1E3
:1001F00002C005900D92AA39B107D9F710E0C4EEFC
:10020000D0E004C02197FE010E94570CC33ED107E5
:10021000C9F70E945A090C94690E0C94000096E0EC
:10022000899FD0011124A650BE4F90967C936E9367
:100230005F9791E091969C9391979091A202E091A3
:10024000A302F091A402992339F0309751F0811163
:1002500008C08091160204C0309719F05C968C910A
:10026000099408958091B20281110DC082E08093BB
:10027000AE0284E08093AF021092B1021092B002FD
:1002800081E08093B2028EEA92E0089590E0FC0152
:100290003197EF30F105B0F5EA5AFF4F0C94570C47
:1002A000809180008F7703C0809180008F7D809344
:1002B0008000089580918000877FF9CF84B58F7783
:1002C00002C084B58F7D84BD0895809190008F77A2
:1002D00007C0809190008F7D03C080919000877F40
:1002E0008093900008958091C0008F7703C0809123
:1002F000C0008F7D8093C00008958091C200877FE9
:100300008093C20008953FB7F8948091AA0290911B
:10031000AB02A091AC02B091AD0226B5A89B05C07E
:100320002F3F19F00196A11DB11D3FBFBA2FA92F74
:10033000982F8827820F911DA11DB11DBC01CD01F1
:1003400042E0660F771F881F991F4A95D1F70895DD
:100350000E94540EEF92FF920F931F93CF93DF935F
:10036000EC017B018A0188819981009729F02A811B
:100370003B8124173507F8F4B8016F5F7F4F0E9467
:100380008A0D009759F0998388831B830A832C81F7
:100390003D81232B81F4FC0110820DC0888199815D
:1003A000009711F00E94F20C198218821D821C82A3
:1003B0001B821A8207C01D830C83B7018881998133
:1003C0000E94620ECE01DF91CF911F910F91FF909D
:1003D000EF900895DF92EF92FF920F931F93CF93C8
:1003E000DF93D82E8A017B01E40EF51EEB01CE15BA
:1003F000DF0571F0D7FE03C0FE01849101C0888142
:100400000E94650821968111F2CF8FEF9FEF01C006
:10041000C801DF91CF911F910F91FF90EF90DF9076
:1004200008950F931F93CF93DF931F92CDB7DEB73D
:1004300082E0898342E450E06AEC70E080E80E9448
:10044000EA010E943201DC0112960D911C91139772
:100450000115110569F0D801ED91FC910280F3813D
:10046000E02DBE016F5F7F4FC801099597FF07C060
:1004700089810F90DF91CF911F910F910895F8011D
:1004800000851185E5CFBC01009791F0FC0101903A
:100490000020E9F73197AF01481B590BE091A40107
:1004A000F091A5010280F381E02D84EA91E00994A6
:1004B00080E090E008958F929F92AF92BF920F9349
:1004C0001F93CF93DF93CDB7DEB7A1970FB6F89404
:1004D000DEBF0FBECDBF19A2423008F44AE08E0144
:1004E0000F5D1F4F842E912CA12CB12CA5019401DE
:1004F0000E94350CE62FB901CA0101501109EA30FA
:1005000014F4E05D01C0E95CD801EC93232B242BAB
:10051000252B61F7C8010E944302A1960FB6F894FB
:10052000DEBF0FBECDBFDF91CF911F910F91BF9066
:10053000AF909F908F900895CF92DF92EF92FF92AD
:10054000CF93DF936B017C01E091A401F091A501B1
:100550000190F081E02D6DE284EA91E00995EC01D3
:1005600066277727CB016C197D098E099F094AE020
:100570000E945B028C0F9D1FDF91CF91FF90EF9047
:10058000DF90CF900895009771F0FC01019000205A
:10059000E9F73197AF01481B590BBC0184EF91E09B
:1005A0000E94AA0114C08091F4019091F501009776
:1005B00011F00E94F20C1092F5011092F4011092C9
:1005C000F9011092F8011092F7011092F60184EFF0
:1005D00091E00895FC018091A301811103C08FEF88
:1005E0009FEF08959FB7F89482E08093E9002091EF
:1005F000F20030E01216130614F421E030E0211569
:10060000310559F0289884E68093A2018091F10089
:1006100080838091F200882319F09FBFC90108955B
:100620008BE68093E800F9CF2FB7F89483E08093AE
:10063000E9009091E800892F807295FF04C09091A5
:10064000F20080E4891B2FBF0895CF92DF92EF92D2
:10065000FF920E9483016B017C010E948301DC01F7
:10066000CB018C199D09AE09BF09883E9340A105B5
:10067000B10598F3FF90EF90DF90CF900895CF935E
:10068000DF93282F30E0F901E955FE4F8491F901FD
:10069000E857FE4FD491F901E759FE4FC491CC239E
:1006A00091F081110E944601EC2FF0E0EE0FFF1F48
:1006B000E55AFE4FA591B491EC91ED2381E090E0D5
:1006C00021F480E002C080E090E0DF91CF910895B6
:1006D0001F93CF93DF93282F30E0F901E955FE4FA8
:1006E0008491F901E857FE4FD491F901E759FE4F83
:1006F000C491CC23C9F0162F81110E944601EC2F22
:10070000F0E0EE0FFF1FE35BFE4FA591B4918FB7B2
:10071000F894111105C09C91ED2FE095E92302C0DA
:10072000EC91ED2BEC938FBFDF91CF911F9108954A
:10073000CF93DF9390E0FC01E857FE4F2491FC013A
:10074000E759FE4F8491882361F190E0880F991F4B
:10075000FC01E15CFE4FC591D491FC01E35BFE4FCF
:10076000A591B491611109C09FB7F8948881209533
:1007700082238883EC912E230BC0623061F49FB7F3
:10078000F8943881822F809583238883EC912E2BD7
:100790002C939FBF06C08FB7F894E8812E2B288337
:1007A0008FBFDF91CF9108952FB7F8946091A60283
:1007B0007091A7028091A8029091A9022FBF08957D
:1007C0000F931F93CF93DF93C82FD62F86E0C89F38
:1007D000F0011124E650FE4F11A2878D90A18130C7
:1007E0009105F1F01CF4892B49F043C0823091054A
:1007F000A9F10397F1F560E070E034C06623C9F118
:1008000061E070E08C2F0E940F010E94D40360937E
:100810008E0270938F02809390029093910229C070
:100820000E94D40300918E0210918F0220919002B9
:1008300030919102AB01BC01401B510B620B730B59
:100840008091A0029091A102A0E0B0E084179507EA
:10085000A607B70718F462E070E004C0D11109C020
:1008600063E070E08C2FDF91CF911F910F910C947A
:100870000F01DF91CF911F910F9108951F920F9259
:100880000FB60F9211242F933F938F939F93AF93A3
:10089000BF938091A6029091A702A091A802B09167
:1008A000A9023091A50223E0230F2D3720F40196F1
:1008B000A11DB11D05C026E8230F0296A11DB11D83
:1008C0002093A5028093A6029093A702A093A8026A
:1008D000B093A9028091AA029091AB02A091AC02C0
:1008E000B091AD020196A11DB11D8093AA02909313
:1008F000AB02A093AC02B093AD02BF91AF919F91B8
:100900008F913F912F910F900FBE0F901F901895D0
:100910001F920F920FB60F9211248F939F93809185
:10092000E1009091E100937F9093E10083FF0FC07D
:100930001092E90091E09093EB001092EC0092E3AA
:100940009093ED001092A30198E09093F00082FF45
:1009500020C093E09093E9009091F200992319F060
:100960009AE39093E8009091A101992339F0909136
:10097000A10191509093A101992389F19091A20135
:10098000992339F09091A20191509093A20199235B
:1009900041F184FF10C08091E2008E7E81608093DF
:1009A000E2008091E1008F7E8093E1008091A001C0
:1009B0008E7E806111C080FF16C08091E2008E7E25
:1009C00080618093E2008091E1008E7E8093E1005F
:1009D0008091A0018E7E81608093A00104C05D9A09
:1009E000CDCF289AD6CF9F918F910F900FBE0F90A9
:1009F0001F9018951F920F920FB60F921124CF924D
:100A0000DF92EF92FF920F931F932F933F934F9399
:100A10005F936F937F938F939F93AF93BF93EF9366
:100A2000FF93CF93DF93CDB7DEB76C97DEBFCDBF1B
:100A30001092E9008091E80083FFEDC168E0CE01EB
:100A400045960E94930882EF8093E8008D8987FF86
:100A500005C09091E80090FFFCCF03C09EEF9093FB
:100A6000E800982F907609F0C6C09E892F89188DCE
:100A700091110CC0803829F480919F018093F1007E
:100A800002C01092F1001092F10048C1422F50E0D4
:100A9000512B913051F4811141C14130510509F080
:100AA0003DC180919F018D7F0BC0933061F4811116
:100AB00035C14130510509F031C180919F018260FB
:100AC00080939F012BC1953041F48091E80080FF15
:100AD000FCCF20682093E30021C1963009F05FC06D
:100AE000EB8CFC8C1092E90010929D0110929C01FD
:100AF000123091F510929B0110929A010E941102FE
:100B000099E0BE016F5F7F4FDB01E92F1D92EA95EF
:100B1000E9F799831A8391E09E8390EA98879AEF88
:100B2000998720919C0130919D01275F3F4F3C8325
:100B30002B838D831092E90010929D0110929C01ED
:100B4000F0929B01E0929A0149E050E080E00E941F
:100B5000EA010E941102E2C0F0929B01E0929A0128
:100B60000E943201DC011296ED90FC901397E11483
:100B7000F10409F4C0C0D701ED91FC910480F58126
:100B8000E02DBE016B5E7F4FC7010995009719F0FC
:100B90000CF0C4C0C7C0F701E084F184E8CF9730FF
:100BA00009F4C0C0983021F481E08093F100B6C010
:100BB000993009F0B3C0837009F0B4C0E0E3F1E00C
:100BC00081E021E036E39081992361F08093E90090
:100BD0002093EB0091919093EC003093ED008F5FA8
:100BE000873089F78EE78093EA001092EA008F89B8
:100BF0008093A30193C08B8D9C8D1092E90010927D
:100C00009D0110929C0190939B0180939A01898D84
:100C1000811156C08E899D89913A59F4813209F02B
:100C200081C047E050E064E071E080E00E94EA01AA
:100C300075C0913209F076C0833289F4888D90E0D6
:100C4000982F88272F89822BA0E0B0E080930001A5
:100C500090930101A0930201B09303015FC0803221
:100C600069F48091E80082FFFCCF67E084E091E0C6
:100C70000E9493088BEF8093E80006C0823209F04F
:100C80004DC08F8980930B0180919E01882319F0BC
:100C9000EEEFFAE002C0E0E0F8E08091040190910C
:100CA0000501A0910601B0910701803B9440A10588
:100CB000B10509F07BC080910B0180FF93C076C025
:100CC0000E943201DC0112960D911C9113970115BF
:100CD000110541F1D801ED91FC910190F081E02DD9
:100CE000BE016B5E7F4FC8010995811117C0F801E5
:100CF00000851185ECCF113009F44EC0133091F40A
:100D00008F89882309F445C0823081F440E860E18E
:100D10008EE291E00E94A008882321F08EEF80935C
:100D2000E80079C081E28093EB0075C0813029F43E
:100D300040E86BE082E291E0EDCF833099F70E94CA
:100D40003201DC011296ED90FC9013978E010F5F3B
:100D50001F4F6801E114F10479F0D701ED91FC9186
:100D60000680F781E02DB801C7010995080F111D14
:100D7000F701E084F184EECFD8011C92F6010190D6
:100D80000020E9F73197BF016C197D0940E0C601E9
:100D9000C1CF6CE071E002C060E171E061157105E6
:100DA00009F2FB01449150E080E840CF0FB6F8947F
:100DB000A895809160008861809360001092600027
:100DC0000FBEA895EE3F2AE0F20739F08091FE0AA7
:100DD0009091FF0A91838083A1CF1092FF0A109215
:100DE000FE0A9CCFEE3F8AE0F80731F080819181C6
:100DF0009093FF0A8093FE0A87E797E791838083A9
:100E00009BE088E10FB6F894A895809360000FBE30
:100E10009093600083CF6C960FB6F894DEBF0FBE40
:100E2000CDBFDF91CF91FF91EF91BF91AF919F9196
:100E30008F917F916F915F914F913F912F911F9172
:100E40000F91FF90EF90DF90CF900F900FBE0F901B
:100E50001F901895CF92DF92EF92FF920F931F93FE
:100E6000CF93DF936C017A018B01C0E0D0E0CE1507
:100E7000DF0589F0D8016D918D01D601ED91FC91CE
:100E80000190F081E02DC6010995892B11F47E01B6
:100E900002C02196ECCFC701DF91CF911F910F9136
:100EA000FF90EF90DF90CF900895CF93DF931F9244
:100EB000CDB7DEB76983DC01ED91FC910280F3814F
:100EC000E02D41E050E0BE016F5F7F4F09950F902C
:100ED000DF91CF91089583E08093E9008091F20043
:100EE000882319F08AE38093E8000895FC01848543
:100EF000958597FD0BC09FB7F89482E08093E90039
:100F00008091F2009FBF90E0019608959FB7F894FA
:100F100082E08093E9008091F2009FBF90E0089505
:100F2000089580E090E00895862F642F0C94980334
:100F3000862F642F0C946803862F0C943F038F92A6
:100F40009F92AF92BF92CF92DF92EF92FF920F9358
:100F50001F93CF93DF936C015B017A0180910B01AA
:100F6000882309F456C08091A301882309F451C055
:100F70008091A00180FF05C08091E0008260809395
:100F8000E000E70110E00AEF83E0882E9AE3992E53
:100F90002097B1F10E941403811105C00150C9F1DD
:100FA0000E942503F5CF282F30E0C217D3070CF499
:100FB0008C2F4FB7F8948092E9009091E80095FF4C
:100FC0001DC0282F30E0C21BD30BF501982F915084
:100FD00020F081918093F100FACFA20EB31E11236D
:100FE00019F09092E80009C08091E80085FD06C0E4
:100FF0009092E80011E0209709F010E04FBFC8CFB1
:101000001111C8CF5D9884E68093A1011E141F04BE
:1010100044F081E090E0F6019383828380E090E0E9
:1010200001C0C701DF91CF911F910F91FF90EF9009
:10103000DF90CF90BF90AF909F908F9008950E94C7
:10104000140390E008950F931F93CF93DF931F92A3
:10105000CDB7DEB78C01FC018485958597FF0EC066
:10106000CE0101960E94EA02019719F4298130E02D
:1010700002C02FEF3FEFF80135872487F801848500
:1010800095850F90DF91CF911F910F910895CF9388
:10109000DF931F92CDB7DEB7FC018485958597FD60
:1010A00005C02FEF3FEF358724870BC0CE01019697
:1010B0000E94EA02019719F4898190E002C08FEF43
:1010C0009FEF0F90DF91CF91089540919C01509137
:1010D0009D0120919A0130919B0142175307B4F46E
:1010E0009091E8009570E1F39091E80092FD19C0AD
:1010F0008093F10080919C0190919D0101968F73E6
:101100009927892B19F48EEF8093E80080919C0138
:1011100090919D01019690939D0180939C0181E0A7
:10112000089580E00895615030F02091F100FC01B5
:1011300020830196F8CF289884E68093A201089531
:10114000CF92DF92EF92FF920F931F93CF93DF9393
:101150001F92CDB7DEB7182F062FE42E862F880FEB
:101160008E5F99830E94650883E00E946508F12ED6
:10117000C12E9981D92E8C2D8F19801798F4F601E4
:10118000E7FE02C0849101C080810E946508182F8B
:1011900080E00E9465088123FFEFCF1ADF0A8111EA
:1011A000EACF01C081E00F90DF91CF911F910F91A5
:1011B000FF90EF90DF90CF9008951092A7011092CA
:1011C000A60188EE93E0A0E0B0E08093A8019093A0
:1011D000A901A093AA01B093AB018AE391E0909397
:1011E000A5018093A4018FEF9FEF9093B1018093AD
:1011F000B0011092FC01109200021092FF011092B7
:1012000001028CE491E09093FB018093FA0180E06D
:1012100090E0FC01E650FE4F148E10A2178E11A232
:10122000069688379105A9F781E191E0909399029C
:10123000809398028CE091E090939B0280939A02B5
:1012400084E080939C0285E080939D0285E191E09B
:1012500090939702809396028AE090E090939F0289
:1012600080939E0284EF91E09093A1028093A0026C
:101270001092A4021092A302109292021092930272
:1012800010929402109295021092A2021092F5010F
:101290001092F4011092F7011092F6011092F901E8
:1012A0001092F80140E050E060E771E084EF91E0D7
:1012B0000C94AA01789484B5826084BD84B5816061
:1012C00084BD85B5826085BD85B5816085BD809111
:1012D0006E00816080936E00109281008091810089
:1012E0008260809381008091810081608093810081
:1012F0008091800081608093800080919100826065
:101300008093910080919100816080939100809101
:1013100090008160809390008091C10084608093F0
:10132000C1008091C10082608093C1008091C100A2
:1013300081608093C1008091C30081608093C3006D
:101340008091C00082608093C0008091C200816063
:101350008093C20080917A00846080937A008091AB
:101360007A00826080937A0080917A008160809315
:101370007A0080917A00806880937A001092A301AD
:1013800010929F011092A0018091D70081608093FC
:10139000D70080EA8093D80089B5806189BD89B57E
:1013A000826089BD09B400FEFDCF0E9425038091B3
:1013B000D8008F7C80618093D8008091E000807F8E
:1013C0008093E0008091E1008E7E8093E1008DE0CB
:1013D0008093E200559A209AEEEFFFE78591949171
:1013E0008B3F9C4D19F481E080939E018FEF9FEF1E
:1013F0009093B1018093B0011092BE021092BF028F
:101400001092C0021092C1020E94D4036093BA02EB
:101410007093BB028093BC029093BD0280E791E081
:101420000E94C30235E0C32ED12CE12CF12C812C7B
:10143000912C540183948091BE029091BF02A0919F
:10144000C002B091C1020196A11DB11D8093BE02E0
:101450009093BF02A093C002B093C1020E94D40334
:101460000091BA021091BB022091BC023091BD02E2
:10147000DC01CB01801B910BA20BB30B893893418C
:10148000A105B10558F182E591E00E944302609107
:10149000BE027091BF028091C0029091C102A7016B
:1014A00096010E94350CCA01B9014AE00E945B0214
:1014B0008EE691E00E9443020E94D4036093BA0238
:1014C0007093BB028093BC029093BD021092BE0247
:1014D0001092BF021092C0021092C1020E94D40367
:1014E0000091920210919302209194023091950202
:1014F000AB01BC01401B510B620B730B80919E0230
:1015000090919F02A0E0B0E084179507A607B70767
:1015100040F080E090E0892B09F48DCF0E9400001C
:101520008ACFC0E080919C02C81760F4E0919802D5
:10153000F0919902EC0FF11D62E080810E94980306
:10154000CF5FF0CF712C80919D02781608F060C0BB
:10155000C72DD0E0E0919A02F0919B02EC0FFD1FA5
:1015600061E080810E949803E0919A02F0919B02D1
:10157000EC0FFD1F60E080810E946803D501C4016B
:10158000072C04C0880F991FAA1FBB1F0A94D2F70B
:101590001C012C0140945094612C80919C0268168F
:1015A00008F5062D10E0E0919802F0919902E00F05
:1015B000F11F80810E943F030C5F1F4F000F111F1E
:1015C000F801E650FE4F892B29F480819181822910
:1015D000932904C080819181842195219183808306
:1015E0006394DBCFE0919A02F0919B02EC0FFD1F18
:1015F00061E080810E94680380919A0290919B0231
:10160000C80FD91F60E088810E94980373949BCF14
:10161000E6E1F2E083819481892B31F410828FEF2F
:101620009FEF928381831582369692E0EE38F90718
:1016300089F7C0E096E0792E80919C02C81708F0E7
:1016400054C0D0E00C2F10E0000F111F0E5F1D4F93
:1016500020919D02D21708F046C0F8016081718187
:101660000D2E02C0769567950A94E2F76170772790
:10167000C29F900111242D0F311DE0919602F0912F
:101680009702E20FF31FA081EAEFF1E080E0458DC1
:10169000568D4217530711F461701BC08F5F369649
:1016A0008431A9F7672BE9F0E6E1F2E080E090E011
:1016B0004081411111C0789EA001799E500D1124E6
:1016C000FA01E650FE4FA48F368F258F10A2178E99
:1016D00061E00E94E00305C00196369684319105D1
:1016E00039F7DF5FB5CFCF5FA7CF80E090E0C0E0F4
:1016F000FC01E650FE4F21A12111C1E0069688377A
:101700009105B1F70E94D403609392027093930203
:101710008093940290939502CC2309F4FACECAEFF9
:10172000D1E08E01F801658D768D072E000C880BB7
:10173000990B97FF03C00E949C0203C04AE00E94DD
:101740005B028EE691E00E9443020A5F1F4FF2E0C7
:1017500002371F0739F7412C512C320189A1882308
:10176000C9F18F8D98A18130910571F02CF4892BEE
:1017700091F48DE891E00DC08230910541F003971E
:1017800051F482E891E005C081E791E002C08BE767
:1017900091E00E94C30284E991E00E9443024AE082
:1017A000C301B2010E945B02E091A401F091A50186
:1017B0004091F8015091F9016091F4017091F501A7
:1017C0000280F381E02D84EA91E009958EE691E0B4
:1017D0000E94430226962FEF421A520A620A720AA8
:1017E00084E1481651046104710409F0B7CF91CE29
:1017F0008091F4019091F5010C94F20C2F923F929C
:101800004F925F926F927F928F929F92AF92BF9210
:10181000CF92DF92EF92FF920F931F93CF93DF93BC
:10182000CDB7DEB7CA1BDB0B0FB6F894DEBF0FBE19
:10183000CDBF09942A88398848885F846E847D8466
:101840008C849B84AA84B984C884DF80EE80FD8068
:101850000C811B81AA81B981CE0FD11D0FB6F894DE
:10186000DEBF0FBECDBFED010895A1E21A2EAA1B67
:10187000BB1BFD010DC0AA1FBB1FEE1FFF1FA21740
:10188000B307E407F50720F0A21BB30BE40BF50B3D
:10189000661F771F881F991F1A9469F760957095C6
:1018A000809590959B01AC01BD01CF010895EE0F8D
:1018B000FF1F0590F491E02D0994CF93DF938230C0
:1018C000910510F482E090E0E091C402F091C5022D
:1018D00020E030E0C0E0D0E0309711F1408151814C
:1018E00048175907C0F04817590761F4828193815E
:1018F000209719F09B838A832BC09093C502809315
:10190000C40226C02115310519F04217530718F4F7
:101910009A01BE01DF01EF010280F381E02DDCCFEF
:101920002115310509F1281B390B2430310590F4BC
:1019300012968D919C9113976115710521F0FB0111
:101940009383828304C09093C5028093C402FD01F7
:10195000329644C0FD01E20FF31F81939193225010
:1019600031092D933C933AC02091C2023091C302B9
:10197000232B41F420912B0130912C013093C30291
:101980002093C2022091290130912A0121153105AD
:1019900041F42DB73EB740912D0150912E01241BEB
:1019A000350BE091C202F091C302E217F307A0F4F5
:1019B0002E1B3F0B2817390778F0AC014E5F5F4FA5
:1019C0002417350748F04E0F5F1F5093C302409312
:1019D000C2028193919302C0E0E0F0E0CF01DF9179
:1019E000CF9108950F931F93CF93DF93009709F43E
:1019F0008CC0FC013297138212820091C4021091B4
:101A0000C5020115110581F420813181820F931FD8
:101A10002091C2023091C3022817390779F5F0935B
:101A2000C302E093C20271C0D80140E050E0AE179B
:101A3000BF0750F412962D913C911397AD012115DB
:101A4000310509F1D901F3CF9D01DA0133832283F6
:101A500060817181860F971F8217930769F4EC01EB
:101A600028813981260F371F2E5F3F4F3183208316
:101A70008A819B8193838283452B29F4F093C5024D
:101A8000E093C40242C01396FC93EE931297ED01CB
:101A9000499159919E01240F351FE217F30771F404
:101AA00080819181840F951F029611969C938E934D
:101AB0008281938113969C938E931297E0E0F0E0DD
:101AC000D80112968D919C911397009719F0F80107
:101AD0008C01F6CF8D919C9198012E5F3F4F820F24
:101AE000931F2091C2023091C3022817390769F46D
:101AF000309729F41092C5021092C40202C01382DA
:101B000012821093C3020093C202DF91CF911F9102
:101B10000F910895A0E0B0E0E0E9FDE00C94020C24
:101B2000EC01009721F4CB010E945D0CB8C0FC01D0
:101B3000E60FF71F9C0122503109E217F30708F462
:101B4000ACC0D9010D911C91119706171707B0F081
:101B50000530110508F49FC0C80104978617970740
:101B600008F499C002501109061B170B0193119339
:101B70006D937C93CF010E94F20C8DC05B01A01A83
:101B8000B10A4C01800E911EA091C402B091C50211
:101B900040E050E0E12CF12C109709F44AC0A81560
:101BA000B905D1F56D907C901197630182E0C80E64
:101BB000D11CCA14DB0480F1A3014A195B096A0134
:101BC00082E0C80ED11C1296BC9012971396AC916D
:101BD000B5E0CB16D10440F0B282A3835183408399
:101BE000D9016D937C930AC00E5F1F4FC301800F14
:101BF000911FF90191838083EB2DFA2FE114F104F9
:101C000031F0D7011396FC93EE93129744C0F093F2
:101C1000C502E093C4023FC08D919C911197481773
:101C2000590708F4AC017D0112960D90BC91A02DCE
:101C3000B3CF8091C2029091C30288159905E1F457
:101C400046175707C8F48091290190912A010097FF
:101C500041F48DB79EB740912D0150912E01841B08
:101C6000950BE817F907C8F4F093C302E093C2029A
:101C7000F901718360830FC0CB010E945D0C7C0170
:101C8000009759F0A801BE010E94590ECE010E9492
:101C9000F20CC70104C0CE0102C080E090E0CDB7D5
:101CA000DEB7EEE00C941E0C81E090E0F8940C940A
:101CB000690EFB01DC0102C001900D9241505040C1
:101CC000D8F70895FB01DC0101900D920020E1F7A7
:101CD000089510E0C4EED0E004C0FE010E94570C4D
:0C1CE0002196C53ED107C9F7F894FFCF4C
:101CEC00FFFFFFFF00E100000000000004050607F5
:101CFC000815141312313233343536373839414222
:101D0C00434445464748494A4B0000C60280000000
:101D1C00C180810000000000000055079F071F08CC
:101D2C006B07760747082308000000009407980704
:101D3C009C0741766572616765206C6F6F707320CC
:101D4C00706572207365636F6E64203D20000D0A10
:101D5C000020505245535345442E0020484F4C44CC
:101D6C002E002052454C45415345442E00204944F9
:0A1D7C004C452E004B657920000055
:00000001FF
